:400000000080002011000000D1060000D106000008B5044B1A6803F53F5302331A6000F077FB00BFFA46004010B5054C237833B9044B13B10448AFF300800123237010BD57
:400040009881FF1F00000000E4420000084B10B51BB108490848AFF300800848036803B910BD074B002BFBD0BDE81040184700BF000000009C81FF1FE4420000C880FF1F16
:40008000000000000122014B1A707047B481FF1F012803D0022803D020B9704702207047012070470420704738B504460D460022104B02F0E1F908B100240E4D00220023D8
:4000C0002046294602F0BAF908B1002400250022094B2046294601F03FFF0022054B02F065F802F0D3F980B200F086FB00F0E0FB38BD00BF000059400000894038B50446D0
:400100000D460022104B02F0B7F908B100240E4D002200232046294602F090F908B1002400250022094B2046294601F015FF0022054B02F03BF802F0A9F980B200F0D4FB12
:4001400000F02EFC38BD00BF000059400000894008B5012001F0E6FD002000F03BFC08BD08B5002001F0DEFD012000F033FC08BD08B5002000F022FC012000F013FC08BD13
:4001800008B5012000F01AFC002000F00BFC08BD38B500F087FB78B900F0FCFB60B90024064D20462946FFF77FFF20462946FFF7A5FF642001F00AFE38BD00BF00005440FB
:4001C000F8B5044678B9FFF7E3FF00262D4F30463946FFF769FF30463946FFF78FFFFFF7B7FFFFF7C5FF032C0FD1FFF7D1FF0026244F30463946FFF757FF30463946FFF791
:400200007DFFFFF7ADFFFFF7BBFF022C15D1642001F0DCFD0420FFF7D3FFFFF7B9FF0026184F30463946FFF73FFF30463946FFF765FFFFF78DFFFFF7A3FF012C15D164203E
:4002400001F0C4FD0420FFF7BBFFFFF7A1FF00260C4F30463946FFF727FF30463946FFF74DFFFFF77DFFFFF783FF042C09D10024002520462946FFF717FF20462946FFF7B0
:400280003DFFF8BD0080414038B501F071FD044601F076FD002C08BF00280CBF0124002401F07EFD002814BF002404F0010401F06FFD044001F054FD204241D101F058FD02
:4002C000044601F05DFD002C08BF00280CBF0124002401F065FD002814BF002404F0010401F064FD044001F053FD002814BF002404F0010401F034FD204223D101F038FD42
:40030000044601F03DFD002C08BF00280CBF0124002401F045FD002814BF002404F0010401F044FD044001F033FD044001F018FD002814BF002004F0010028B9052504E0EE
:40034000002502E0022500E0012501F011FD044601F016FD002C08BF00280CBF0124002401F01EFD002814BF002404F0010401F01DFD002814BF002404F0010401F008FD90
:40038000044001F0EDFC204200D00025104B9B689D4213D10E4B9B6883B1052D0ED00420FFF70EFF4FF4C87001F010FD2846FFF76FFEFFF705FFC82001F008FD052D02D1B9
:4003C0000420FFF7FDFE024B9D60986838BD00BFB481FF1F08B562B60121002000F090FC00F052FA00F0C8FA00F058FB0C4800F07DFB002001F0AEFCFFF746FFFFF748FEE5
:40040000FFF7DEFE01F0CCFC18B1012001F096FCF2E701F0C5FC0028EED101F08FFCEBE785000000FEE700BFF0B40022174611E050F82760F3B226F0FF0608E001EB42051D
:4004400011F812406D78A5550132013BDBB2002BF4D10137262FEBD9F0BC7047064B1B78DBB203F00701054A11701B09013213704422034B1A707047CF0100496E58004078
:400480007658004008B50A46002102F056F808BD38B501222C4B1A8018232C4A1370172102321180023213703321023211800232137040F2E732264B1A801B2202331A70D0
:4004C000062203F272231A705222A3F580731A70204B1B78DBB2204A13704FF4E1621F4B1A8041F25122023B1A80002419250CE01B4B1B7803F0010343EA440404F003040A
:400500004FF4F07001F0E8FC013D0DB1032CEFD115B90320FFF786FF124A4FF48073138007231370002310490B7048200231087013700532137002220C4B1A700C4A1378ED
:4005400043F00F03137038BD80400040824000408C4000400F010049A14600402242004025420040044000400640004001400040A243004008B501F0D5FF08BD38B572B6D9
:400580003C4A137843F00403137000240CE03A4D630019194A0011462A44084691882858FFF770FF0134E4B2072CF0D900240BE03149A3001819420088188022416B006B27
:4005C000FFF7D8FF0134E4B2002CF1D02B494FF09040FFF729FF2A4A2A4B1A602A4A03F500731A60294A137843F0020313701032137843F002031370254C237843F0400356
:400600002370A2F58632513A137843F0100313700A2220492048FFF7ADFF0A221F492048FFF7A8FF0A221F491F48FFF7A3FF08221E491F48FFF79EFF08221E491E48FFF7B6
:4006400099FF0A221D491E48FFF794FF1D4A137843F0080313701C4D61232B70FFF718FF81232B70FFF7FAFE0E2221461748FFF781FF38BDE8460040E84200009C0000480F
:4006800004040444D80A01400404008403500140A0430040A40B004800510040B00B0048C0510040BC0B0048F0510040C80B004812510040D00B004822510040D80B004859
:4006C000305100402243004000480040B043004008B501F0FBFE03680C2B00D1FEE7FEE708B5094B1A681044084BC31AB3F5007F02DC054B186005E001F0E8FE0C230360C3
:400700004FF0FF32104608BDCC80FF1FC082FF1F08B5104E104D16E029686B68AC68002204E051F8040B43F8040B0432A242F8D1E868002203E0002143F8041B0432824229
:40074000F9D11035013E002EE6D101F0C5FEFFF741FEFEE7010000002446000008B5104A104B1A60104A136843F40073136000230AE0032B03D80D4A52F8231000E00C4910
:400780000C4A42F8231001332F2BF2D90A4B1A780A4B1A70074A0A4B1A60FFF7EFFE08BD0004FA050CED00E014ED00E000000000D10600000080FF1FBC760040C080FF1F8D
:4007C00008ED00E0084A137843F0010313701032137843F00103137002F64D32137843F001031370704700BFA3430040014B1880704700BF044F0040014B1880704700BF67
:40080000064F0040014B1870704700BF034F004008B51A4A137843F0020313700232137803F08F0343F040031370154B1A7802F0CF021A701A7842F030021A701A7802F060
:40084000F0021A701A7842F00F021A704FF44870FFF7CCFF4FF4C870FFF7CEFF0020FFF7D1FF084A137843F00103137002F65E32137843F00103137008BD00BF004F004046
:400880000B4F0040A343004008B5054B1B7823B9FFF7BEFF0122024B1A70FFF793FF08BDD181FF1F014B188880B27047064F0040704700BF084A137843F0020313701032D8
:4008C000137843F00203137002F65932137843F001031370704700BFA3430040014B1880704700BF104F0040014B1880704700BF124F0040014B1870704700BF0F4F004072
:4009000008B51A4A137843F0020313700232137803F08F0343F040031370154B1A7802F0CF021A701A7842F030021A701A7802F0F0021A701A7842F00F021A704FF44870FA
:40094000FFF7CCFF4FF4C870FFF7CEFF0020FFF7D1FF084A137843F00203137002F66A32137843F00103137008BD00BF0C4F0040174F0040A343004008B5054B1B7823B9BA
:40098000FFF7BEFF0122024B1A70FFF793FF08BDD281FF1F014B188880B27047124F0040704700BF044A137803F0F703C00000F00800184310707047C0510040044A1378A6
:4009C00003F0FB03800000F00400184310707047C0510040044A137803F0EF03000100F0100018431070704730510040084A137843F0040313701032137843F00403137079
:400A000002F66532137843F001031370704700BFA3430040014B1870704700BF1B4F0040014B1880704700BF1C4F0040014B1880704700BF1E4F004008B5154A137803F0AC
:400A4000010313700232137803F0FC031370114B1A7802F0CF021A701A7842F030021A701A7802F0F0021A701A7842F00F021A70094A137843F0010313703120FFF7D0FFF3
:400A80003120FFF7D3FF0020FFF7C4FF08BD00BF184F0040234F0040194F004008B5054B1B7823B9FFF7C8FF0122024B1A70FFF79DFF08BDD381FF1F014B1B685865704780
:400AC00008ED00E04001C0B2014B1870704700BF05E400E02022014B1A60704700E100E02022014B1A60704780E100E010B50446FFF7F6FF2046FFF7DFFF0720FFF7E2FFA9
:400B0000FFF7E8FF10BD00BFF8B501F0EDF90746404A137843F0010313701032137843F00103137001263C4B1E700225943B1D7002F5E2521B32137803F07F03137000204B
:400B400001F05AF9354C237803F0F9032370344A137803F0DF031370237833432370304601F04AF9282001F047F92E4B1A7802F07F021A701A7802F0BF021A7023782B438B
:400B80002370284601F038F9237843F0040323700024254B1C7001331C70384601F0A8F90721172001F046F92049172001F02EF90721182001F03EF91D49182001F026F93D
:400BC0000721152001F036F91A49152001F01EF90721204601F02EF91749204601F016F90721304601F026F91449304601F00EF90721284601F01EF91149284601F006F99D
:400C000007210C2001F016F90E490C2001F0FEF8F8BD00BFA54300409D6000409443004012600040F851004084600040A913000091110000A5130000051300003513000031
:400C400069130000B113000008B5214B18700023204A1370204A1370204A1370204A1370204A1370204A1370204A1370204B4FF400021A604FF080721A604FF400121A6041
:400C800001221A6002221A6004221A6011B1012906D00BE0174A137803F0FE0313700AE0144A137843F00103137004E0114A137843F00103137003220F4B1A708022203B32
:400CC0001A70012001F008F904220C4B1A7008BDFD81FF1F0082FF1F1C82FF1F1F82FF1F1482FF1F1E82FF1F2182FF1FFC81FF1F00E100E009600040286000401260004022
:400D000038B504460D46064B1B7823B9FFF7FCFE0122034B1A7029462046FFF795FF38BDD481FF1F00230A4A13700A4A13700A4A13700A4A13700A4A13700A4A13700A4A36
:400D400013700322094B1A708022203B1A7070470082FF1F1C82FF1F1F82FF1F1482FF1F1E82FF1F2182FF1FFC81FF1F2860004010B4FF2400230EE0094AD25C02EB420254
:400D80009100084A11448A7AD2B2824201D11C4602230133DBB2012BEED9204610BC7047EC81FF1F2482FF1F10B5204C2079FFF7DFFF237813F0800F0ED06378DBB2212B0D
:400DC0002FD11B4B07221A80C0EBC000194A1044586000F04BFA10BD144B5B78DBB2202B02D0222B10D01EE0114A07231380C0EBC00310490B4453600F4A135C43F0010307
:400E0000135400F05BFA10BD084B9B780B4A22F81030094A135C43F00203135400F0E4F810BD002010BD002010BD00BF006000400882FF1FD080FF1FE481FF1FF881FF1FC1
:400E4000C37803F0030390F9020000280FDA032B06D002F001030B48C15442F001020EE0C2F380030848C15442F0040207E0032B05D0C2F340030548C15442F00202104678
:400E8000704700BFE881FF1FEC81FF1FF081FF1F1D4B19781D4A13889BB20B449BB2138000220FE01A494B681B78DBB2194883544B6801334B600132D2B20B889BB2013BC0
:400EC0009BB20B80124B1B889BB20BB1072AE9D90D4B1B78DBB2082B00D05AB10E490B7883F080030B700F210C4B197002210C4B197004E0022309490B7009490B70094B43
:400F00001A70014B1A707047FC81FF1FFE81FF1F0882FF1F006000409282FF1F1D82FF1F0082FF1F2082FF1F0222074B1A708022064B1A700F22064B1A700023054A13704D
:400F4000054A1370012070470082FF1F9282FF1F1D82FF1FFC81FF1F2082FF1F08B5FFF797FF08BD10B4194B197801F00F010239C9B2174A13889BB20B449BB213800020C7
:400F800011E0144A5468144B1B5CDBB223705368013353600130C0B20139C9B213889BB2013B9BB213800B4B1B889BB20BB10029E7D10A4B19700A4A137883F08003137019
:400FC0000B22084B1A7010BC704700BF29600040FE81FF1F0882FF1F006000402082FF1F9282FF1F1D82FF1F0623064A1370064A13708022054B1A700022054B1A700120E0
:40100000704700BF0082FF1F1D82FF1F9282FF1F2082FF1F064B9B6843B1054B9A6810709A6804490988518000229A60704700BF0882FF1FFE81FF1F08B5134B1A78D2B218
:401040001A701B78DBB213F0800F02D00F4A137008BD0220FFF7DEFF0D4B1B7803F06003202B05D0402B06D043B900F08FFC06E000F042FF03E000F037FE00E0002010B9CB
:401080000322024B1A7008BD286000401D82FF1F0060004008B5094B1978094A13889BB20B449BB213800022064B1A700120FFF7B1FF0322044B1A7008BD00BFFC81FF1F5D
:4010C000FE81FF1F0082FF1F1D82FF1F08B50B4B1B78DBB2042B06D0062B07D0022B0BD1FFF7D8FF08BDFFF73DFF08BD0320FFF791FF0322024B1A7008BD00BF0082FF1F5B
:401100001D82FF1F08B50022044B1A700120FFF781FF0322024B1A7008BD00BF0082FF1F1D82FF1F08B50B4B1B7813F0FF0F07D0084A137843F0800307490B700023137034
:401140000022064B1A700120FFF764FF0322044B1A7008BD1E82FF1F086000400082FF1F1D82FF1F08B5094B1B78DBB2042B06D0062B07D0022B07D1FFF7F0FE08BDFFF790
:40118000C1FF08BDFFF7CEFF08BD00BF0082FF1F08B5284B1B78DBB213F0100F48D013F0800F0CD003F00F03012B16D1FFF744FF214B1B7813F0800F11D1012312E013F0EE
:4011C000400F03D0FFF7CEFF01230BE013F0200F07D0FFF77BFF012304E0002302E0002300E0002323B3134B1B7813F0800F1FD1124B1B78124A12781343124A1370127871
:40120000D2B2934214D10C4B1B78DBB2094A127812F0800F07D1084B1B78DBB2054A1370137803F00F03044A1278D2B29342EAD108BD00BF286000401D82FF1F9282FF1FB7
:401240002082FF1F296000400022064B1A80064B9B682BB1044A916800230B7092685380704700BFFE81FF1F0882FF1F08B50F4B1B889BB213B9FFF757FE15E002220C4BAD
:401280001A7000220B4B1A70FFF7DEFF0A4AD179937943EA0123054A128892B2934201D2024A1380FFF7F4FD012008BD0882FF1F0082FF1F9282FF1F0060004008B5042256
:4012C0000B4B1A7080220B4B1A70FFF7BDFF0A4AD179937943EA0123084A128892B2934201D2064A13800B22054B1A70012008BD0082FF1F9282FF1F006000400882FF1F1D
:401300001D82FF1F0122094B1A700F3B9B7C084B1B7B03F00303934204D0054AD37B83F08003D3730122024B5A7370470B6000402482FF1F02220A4B1A700F3B93F822309D
:40134000084B1B7E03F00303012B04D0054AD37E83F08003D3760122024B5A76704700BF0B6000402482FF1F04220C4B1A700F3B93F832300A4B93F8243003F00303012BED
:4013800006D0074A92F8273083F0800382F827300122034B83F82520704700BF0B6000402482FF1F704700BF08B5FFF7BBFC08BD08B500F001FD08BD70B588B0054603ACDC
:4013C000174E0FCE0FC43368237035B322232B7003236B7001A800F045FD002402231AE008AA224412F81C2C08A901EB121111F8141CE954581C00212954981C02F00F025A
:4014000008AE324412F8142C2A54DA1CA9540134E4B20433DBB2212BE2D908B070BD00BF2443000010B401233EE019461A010C242148845403EB4300820020480244527907
:4014400012F0FF0F13D003EB430082001B480244127912F0800F04D01801194A024494700AE01801164A02440820907004E01801134A0244802090704800084482000F48E9
:401480000244D488E4B208010B4901448C71D088C0F30720C871D088C0B20871D288C2F307224A710133DBB2082BBED9FF22054B1A7010BC704700BF706000402482FF1F18
:4014C000FC5F00400A600040074B1A78074B03EBC2035B681A7C824204D9C000103018444068704700207047FD81FF1F74430000F8B5404B1B7813F0FF0F79D03D4B1878A2
:401500000138C0B2FFF7E0FF047AC2683A4B1878C0B200236AE01178884264D13749095CC9B25578A9425ED1917801F07F01D67806F00306DFF8C8E04D000D44AF000EEB34
:4015400007054FF0000C85F803C092F802C085F804C092F803C00EF807C097882F8192F90250002D0DDA012E01D1072700E00D274E000E44B500224E35446F7101266E7007
:401580000CE0012E01D1052700E009274E000E44B5001B4E35446F7100266E70DFF868E00F010EEB07060125B57001FA05F529448D00134929440D89C5F307250EF80750D8
:4015C0000D89EDB27570CE88F6B20E4D3D44AE71CE88C6F30726EE71CE88F6B22E71C988C1F30721697108320133DBB2A34292D3F8BD00BF1F82FF1F1482FF1F9082FF1F3D
:401600002482FF1F70600040FC5F0040034B1A78034B03EBC2035868704700BFFD81FF1F7443000008B5084B18780138C0B2FFF74BFF30B142681279023200EBC20358688C
:4016400008BD002008BD00BF1F82FF1F2DE9F047002310E0704D5900CA189600AC190022AA55A270E2702281A272627034462C4462710133DBB2082BECD940B90AE0002206
:401680006649CA546649CA540133DBB200E00023012BF4D9634B1B7813F0FF0F00F0B980604B18780138C0B2FFF70EFF80464368DB7913F0400F05D05B4A137843F001031C
:4016C000137004E0584A137803F0FE03137098F808704FF0000A01266FE0D8F80C50002467E0AB7803F07F039E425FD1314606EB46008300484803441B899BB2A8888342EB
:4017000006D206EB460E4FEA8E03434A134418812B784248C35CDBB26878834246D195F802C0DFF8F4E04B000B4498000EEB000383F804C0EB780EF80030EB7803F0030354
:4017400095F90200002813DA012B02D14FF0070901E04FF00D09DFF8C0E04B0003EB010C4FEA8C00704480F805900121417012E0012B02D14FF0050901E04FF00909DFF8E3
:4017800098E04B0003EB010C4FEA8C00704480F8059000214170AB790A2B01D0022B05D1524631462846FFF74BFB824608350134E4B2BC4295D30136F6B2082E8DD9D8F8AC
:4017C0000C0000220CE0837803F07F0310F8084B03EB43039900104B19448C720132D2B2BA42F0D3FFF71EFF104B1860002101230BE0094D5A00D01884002C44E18022895D
:4018000092B2114489B20133DBB2082BF1D9FFF709FEBDE8F08700BF2482FF1F9082FF1F0482FF1F1F82FF1F2182FF1F1882FF1F08B5154B1B7903F07F035A1ED2B2072A1B
:4018400020D8590019448A0010490A44917841F0010191700021D170517841F002015170127912F0800F05D01B01094A1A448D23937004E01B01064A1A4489239370FFF768
:40188000B3FB08BD002008BD006000402482FF1FFC5F0040274B1B7903F07F035A1ED2B2072A44D810B5590019448A0022490A44917801F0FE0191700021D1701F4C18016F
:4018C000215C01F07F012154517801F0FD015170127912F0800F13D003EB43018A0016490A445278D2B2012A04D1224602440C23937019E01B01114A1A440D23937013E082
:4019000003EB43018A000C490A445278D2B2012A05D11B01094A1A440823937004E01B01064A1A4409239370FFF75EFB10BD0020704700BF006000402482FF1FFC5F004070
:4019400010B50E4B1C79E4B20D4B18780138C0B2FFF7BAFD43681B799C4201D9022C0AD8084A135DDBB208490B55044B9B78DBB21355012010BD002010BD00BF0060004046
:401980001F82FF1F9082FF1F0482FF1F10B5964B1B78DBB20021954A118013F0800F00F0B380914A5278D2B20A2A00F27981DFE812F06F00770177017701770177010B00A4
:4019C000770198007701A000874BDB78DBB2012B09D1FFF71BFE4268844B5A6012221A80FFF744FC10BD804BDB78DBB2022B13D17D4B9878FFF768FD002800F0538142686F
:401A00007A4B5A605A68D1785A68927842EA01221A80FFF72BFC10BD734BDB78DBB2032B05D032E00A7811440133DBB201E000236F496D4A9278D2B2934203D20A7812F003
:401A4000FF0FEFD1684B9B78DBB2EE2B00D16949654B9B7813F0FF0F0BD0634B9B78DBB2654A127C934204D1644C2046FFF7A4FC21460B7813F0FF0F00F016810B785B4A6F
:401A800013805160FFF7F2FB10BD00F035FA10BD13F0030317D0022B40F0088153490B80514B1B7903F07F0303EB43039A00544B1A449278D2B2534B1A7000225A704B608C
:401AC000FFF7D4FB10BD494902230B804E4B1A78D2B24C4B1A7000225A704B60FFF7C6FB10BD424B01221A80484A5A60FFF7BEFB10BD3E4A012313803B4B1B7944490B44E0
:401B00005360FFF7B3FB10BD374A5278013A0A2A00F2CE80DFE812F04C00CC009700CC000B00CC00CC00CC001300CC0030002E4B9B78DBB2374A1370FFF756FA10BD2A4B20
:401B40009B7803F0FF041BB1601EC0B2FFF7BCFC04B110B9002C40F0AD802C4B1B78DBB29C4206D0294B1C7001202B4B1870FFF76DFDFFF739FA10BDFFF7E2FE002800F03D
:401B80009B80194A1379DBB21279D2B223490A70234AD25CD2B21E49CB5CDBB29A4204D001221D4B1A70FFF7A3FCFFF71DFA10BD03F00303012B35D04BB1022B7ED10A4B34
:401BC0009B7813F0FF0F7BD1FFF764FE10BD064B9B78DBB2012B75D10B4A137803F0FD031370FFF701FA10BD006000400882FF1FDC43000060430000C04400009882FF1F93
:401C00002482FF1FD881FF1F2182FF1F1F82FF1F9082FF1F1E82FF1F1C82FF1F1482FF1F0482FF1F2D4B1B79DBB2012B4CD82B4B98781B79DBB22A49CA5C22EA0002CA5492
:401C4000FFF7D2F910BD03F00303012B17D04BB1022B3BD1214B9B7813F0FF0F38D1FFF7E7FD10BD1D4B9B78DBB2012B32D11D4A137843F002031370FFF7B6F910BD174B9D
:401C80001B79DBB2012B27D8144B98781B79DBB21349CA5C22EA0002CA54FFF7A5F910BD002010BD002010BD002010BD002010BD002010BD002010BD002010BD002010BDD1
:401CC000002010BD002010BD002010BD002010BD002010BD002010BD002010BD006000409482FF1F2182FF1F08B50B4B1B7813F0800F0CD0084B5B78DBB2012B09D1074BB5
:401D0000074A5A6012781A80FFF7B0FA08BD002008BD002008BD00BF006000400882FF1F38430000044A137803F0DF03400100F0200018431070704730510040044A137898
:401D400003F0FD03400000F0020018431070704720510040014B1870704700BF72640040024B1878C0F34010704700BF11510040024B1878C0F34010704700BF01510040BB
:401D8000024B1878C0F38010704700BF01510040024B1878C0F38010704700BF11510040014B1878C009704701510040014B1878C009704711510040024B1878C0F38010B7
:401DC000704700BF8F45004001BE704710B5044605E0084B186800F07FF8A4F50044B4F5004FF6D8034B586800FB04F000F074F810BD00BFEC80FF1F08B5034B1B7A00FB08
:401E000003F000F069F808BDEC80FF1F70B504460E46074B1D681F2802D90020FFF7D4FF04F01F04103455F8240045F8246070BD08ED00E038B504460D46072902D9002026
:401E4000FFF7C2FF1F2C02D90020FFF7BDFF04F01F0000F1604000F564406D01EDB2057038BD00BF134B1B78DBB20360124A127843EA02230360114A127843EA024303600A
:401E80000F4A127843EA026303600E4B1B78DBB243600D4A127843EA022343600B4A127843EA024343600A4A127843EA02634360704700BF0301004904010049EC460040CE
:401EC0000201004901010049000100490501004906010049000000000230800803D000BF01380046FCD17047EFF3108072B6704780F31088704700BF08B5144B1B7803F09F
:401F00000303012B02D0022B04D00FE00F4B1B79DBB20CE00D4B1B7903F07F0303EB43039A000B4B1A44937ADBB200E00023022B07D8084A1268D35C022B04D1FEF734FF95
:401F400008BD002008BD002008BD00BF006000402482FF1F1882FF1F70B54FF0FF0C4CF4E06C1CEA11541DBF1CEA135594EA0C0F95EA0C0F00F0DEF82C4481EA030621EA5F
:401F80004C5123EA4C5350EA013518BF52EA033541F4801143F4801338D0A0FB02CE4FF00005E1FB02E506F00042E0FB03E54FF00006E1FB03569CF0000F18BF4EF0010EDF
:401FC000A4F1FF04B6F5007F64F5407404D25FEA4E0E6D4146EB060642EAC62141EA55514FEAC52040EA5E504FEACE2EB4F1FD0C88BFBCF5E06F1ED8BEF1004F08BF5FEAA4
:40200000500E50F1000041EB045170BD06F0004646EA010140EA020081EA0301B4EB5C04C2BFD4EB0C0541EA045170BD41F480114FF0000E013C00F3AB8014F1360FDEBFF8
:40204000002001F0004170BDC4F10004203C35DA0C341BDC04F11404C4F1200500FA05F320FA04F001FA05F240EA020001F0004221F0004110EBD37021FA04F642EB060175
:402080005EEA430E08BF20EAD37070BDC4F10C04C4F1200500FA04F320FA05F001FA04F240EA020001F0004110EBD37041F100015EEA430E08BF20EAD37070BDC4F1200533
:4020C00000FA05F24EEA020E20FA04F301FA05F243EA020321FA04F001F0004121FA04F220EA020000EBD3705EEA430E08BF20EAD37070BD94F0000F0FD101F00046400022
:4021000041EB010111F4801F08BF013CF7D041EA060195F0000F18BF704703F00046520043EB030313F4801F08BF013DF7D043EA0603704794EA0C0F0CEA135518BF95EA43
:402140000C0F0CD050EA410618BF52EA4306D1D181EA030101F000414FF0000070BD50EA410606BF1046194652EA430619D094EA0C0F02D150EA013613D195EA0C0F05D142
:4021800052EA03361CBF104619460AD181EA030101F0004141F0FE4141F470014FF0000070BD41F0FE4141F4780170BD70B54FF0FF0C4CF4E06C1CEA11541DBF1CEA135521
:4021C00094EA0C0F95EA0C0F00F0A7F8A4EB050481EA030E52EA03354FEA013100F088804FEA03334FF0805545EA131343EA12634FEA022245EA111545EA10654FEA002603
:402200000EF000419D4208BF964244F1FD0404F5407402D25B084FEA3202B61A65EB03055B084FEA32024FF480104FF4002CB6EB020E75EB030E22BFB61A754640EA0C005C
:402240005B084FEA3202B6EB020E75EB030E22BFB61A754640EA5C005B084FEA3202B6EB020E75EB030E22BFB61A754640EA9C005B084FEA3202B6EB020E75EB030E22BF83
:40228000B61A754640EADC0055EA060E18D04FEA051545EA16754FEA06164FEAC30343EA52734FEAC2025FEA1C1CC0D111F4801F0BD141EA00014FF000004FF0004CB6E7DD
:4022C00011F4801F04BF01430020B4F1FD0C88BFBCF5E06F3FF6AFAEB5EB030C04BFB6EB020C5FEA500C50F1000041EB045170BD0EF0004E4EEA113114EB5C04C2BFD4EB72
:402300000C0541EA045170BD41F480114FF0000E013C90E645EA060E8DE60CEA135594EA0C0F08BF95EA0C0F3FF43BAF94EA0C0F0AD150EA01347FF434AF95EA0C0F7FF4A8
:4023400025AF104619462CE795EA0C0F06D152EA03353FF4FDAE1046194622E750EA410618BF52EA43067FF4C5AE50EA41047FF40DAF52EA43057FF4EBAE12E74FF0FF3CCC
:4023800006E000BF4FF0010C02E000BF4FF0010C4DF804CD4FEA410C7FEA6C5C4FEA430C18BF7FEA6C5C1BD001B050EA410C0CBF52EA430C91EA030F02BF90EA020F002070
:4023C000704710F1000F91EA030F58BF994208BF90422CBFD8176FEAE37040F0010070474FEA410C7FEA6C5C02D150EA013C07D14FEA430C7FEA6C5CD6D152EA033CD3D039
:402400005DF8040B704700BF8446104662468C461946634600E000BF01B5FFF7B7FF002848BF10F1000F01BD4DF808EDFFF7F4FF0CBF012000205DF808FB00BF4DF808EDA2
:40244000FFF7EAFF34BF012000205DF808FB00BF4DF808EDFFF7E0FF94BF012000205DF808FB00BF4DF808EDFFF7CEFF94BF012000205DF808FB00BF4DF808EDFFF7C4FFDD
:4024800034BF012000205DF808FB00BF4A0011D212F5001211D20DD56FF47873B3EB62520ED44FEAC12343F0004343EA505323FA02F070474FF00000704750EA013002D1E7
:4024C0004FF0FF3070474FF000007047014B1868704700BF5C81FF1F0E4B70B51E460E4C0025E41AA410A54204D056F8253098470135F8E702F084F8084B094C1E46E41AA7
:40250000A4100025A54204D056F8253098470135F8E770BD0C4600000C4600000C4600001446000010B5431E0A44914204D011F8014B03F8014FF8E710BD03460244934228
:4025400002D003F8011BFAE770472DE9F04788B0149F002B1E461299B8BF03F1004327F02007B6BF1E4600232D23462F1446109DDDF84CA00B7003D0452F03D1013501E046
:40258000032300E0022307AA049206AA03928DE828042246334600F0B7FB472F804602D1119BDB0728D5462F08EB050911D198F80030302B0AD10022002320463146FFF740
:4025C00033FF18B9C5F10105CAF80050DAF8003099440022002320463146FFF725FF08B9302202E0CDF81C9006E0079B994503D9591C07911A70F8E74046079B159AC8EB47
:402600000303136008B0BDE8F087034673B50029B8BF494203F8022BB4BF2D222B22092942701ADD0DF1070216460A2591FBF5F405FB1411092C01F1300102F8011D21469C
:40264000F4DC3031541E02F8011CB4421A460AD214F8012B03F8012BF7E71A463024214402F8024B5970101A02B070BD2DE9F04F91B00C46DDF8688016461F46054601F05D
:40268000DBF803681846099300F0AAFA00230E93D8F800300A90073323F0070303F1080294F81890D4F800B0C8F80020D3E90023C4E91223D4F84CA0D4F848802AF00043A1
:4026C0000B934FF0FF32A74B40460B9901F0CCFDA0B94FF0FF32A34B40460B99FFF7B8FE60B90022002340465146FFF7A7FE10B12D2384F843309C4B9C4A0AE0424653467B
:402700004046514601F0B0FD002800F09281984B984AB9F1470F8CBF90469846032323612BF0040323604FF0000A3DE0B9F1670F00F08A81B9F1470F00F086812360019311
:40274000636800210DF13302059002920093424653460691CDF81090CDF80CE02846FFF7F4FE09F0DF03472B804600F08481B9F1650F0D9900F28D8101394A4604F150007F
:402780000D91FFF742FF0E9A82468318012A236100F37C812268D10700F178819DF8333013B12D2384F84330009733460FAA2146284600F09FF9013002D14FF0FF3096E144
:4027C00023685A0501D4236965E0B9F1650F40F2D580D4E9120100220023FFF725FE78B30123654A31462846B8470130E5D00E9B0D9A9A420BDB2368D80708D423689B0729
:4028000040F111814FF0000804F1190906E10A9B099A31462846B8470130CED04FF0000804F11A090E9B013B9845E7DA01234A4631462846B8470130BFD008F10108F1E781
:402840000D9B002B29DC01234B4A31462846B8470130B2D00D9B23B90E9B13B92368D907CCD50A9B099A31462846B8470130A4D04FF0000904F11A0A0D9B5B42994509DAF3
:402880000123524631462846B847013095D009F10109F1E70E9B4246A7E00E9AA36D9A42A8BF1A46002A914606DC4FF0000A29EAE97904F11A0B11E0134631464246284681
:4028C000B8470130F1D178E701235A4631462846B84701303FF471AF0AF1010AA36DC9EB03029245F0DB08EB03090D9A0E9B9A420FDB2368DA070CD40E9B0D9A9844C9EBA9
:4029000008089B1A9845A8BF9846B8F1000F08DC0FE00A9B099A31462846B8470130EBD14BE743464A4631462846B84701303FF444AF4FF0000928EAE87804F11A0A09E0CA
:402940000123524631462846B84701303FF435AF09F101090D9A0E9B9B1AC8EB03039945EEDB4BE7FFFFEF7FD4440000D8440000DC440000E0440000E44400000E9A012AF5
:4029800001DCDB0738D50123424631462846B84701303FF412AF0A9B099A31462846B84701303FF40AAFD4E9120100220023FFF73BFD20B14FF0000804F11A090EE00E9B43
:4029C00008F10102013B19E001234A4631462846B84701303FF4F1AE08F101080E9B013B9845F1DB534604F1500231462846B84701307FF403AFE0E642460123314628460A
:402A0000B8470130EED1D8E601234A4631462846B84701303FF4D1AE08F10108E3680F9A9B1A9845F0DBE0680F9B9842B8BF18465DE062680EA8531C0DF1340E4BF48063EC
:402A40007FF474AE062201E012B90122626075E6002106910DF133018DE80C00236005904246CDF81090CDF80CE0029153462846FFF76BFD80460D9BD81C02DB62689342B6
:402A80001DDDA9F102095FFA89F970E60133236184E6B9F1660F14D10029636807DD216113B92268D2071DD501330B4419E013B92268D00701D5023313E0012311E04FF0AA
:402AC00067090D9B0E9A934205DB22682361D10708D5013305E0002BD4BFC3F102030123134423610D9B4FF0000AA36556E611B0BDE8F08F2DE9F04791461F460A698B6806
:402B000006469342B8BF1346C9F8003091F843200C46DDF8208012B10133C9F800302368990642BFD9F800300233C9F80030256815F0060510D104F1190A07E0012352468D
:402B400039463046C04701301AD00135E368D9F800209B1A9D42F1DB94F843302268003318BF012392060FD5E118302081F843005A1C94F845102244023382F8431003E092
:402B80004FF0FF30BDE8F08704F1430239463046C0470130F4D02268D9F80050E36802F00602042A08BF5D1B2269A3680CBF25EAE57500259342C4BF9B1AED184FF00009BA
:402BC0001A344D4509D00123224639463046C0470130D5D009F10109F3E70020BDE8F087034613F8012B002AFBD1181A013870472DE9F74F03690C6980469C427FDC013C93
:402C000001F114074FEA840E00F1140606EB0E0357F82450019356F824300135B3FBF5F507EB0E09C5B34FF0000A3846B446D34650F8043B9AB205FB02A21B0C4FEA124A5A
:402C400005FB03A392B2C2EB0B0BBCF800204FEA134A5A441FFA83FBDCF800308145CBEB134303EB224392B242EA03424FEA234B4CF8042BDCD256F80E306BB9019B043BD7
:402C80009E421A4602D3C8F8104005E01268043B002AF8D1013CF3E7404600F0E6FF00282BDB304601354FF0000E57F8042B036891B2C1EB0E0E120C99B27144C2EB1343B0
:402CC00003EB214389B24FEA234EB94541EA034340F8043BE9D256F8242006EB840362B9043B9E421A4602D3C8F8104005E01268043B002AF8D1013CF3E7284600E000205D
:402D000003B0BDE8F08F00002DE9F04F456A95B08246219CCDE9022345B9102000F090FDCAF82400456085600560C560DAF82430196859B15A68012393404A608B605046D9
:402D400000F0BBFDDAF8243000221A60039BA04A002BBDBF01232360039B0023BCBF23F000430393DDF80C80A8BF236028F000431B0D1B0593421DD142F20F73209A136057
:402D8000029B43B9934A944BC8F31300002814BF1846104600E09048229B002B00F04685C37813B100F1080300E0C31C229A136000F03CBDDDE902450022002320462946ED
:402DC000FFF732FB074658B1209A01231360229B002B00F01E8581481860013800F026BD12AB019313AB009322462B46504600F0B7FFC8F30A56049056B1C5F3130343F0D3
:402E00007F51204641F44011A6F2FF3611971DE0139B129E1E4406F23243202B0ADD029A06F21240C3F1400322FA00F008FA03F3184304E0C3F12000029B03FA00F001F096
:402E40009DF90123A1F1F871013E11930022644B01F056F858A3D3E90023FFF77DF858A3D3E9002301F04EF8044630460D4601F095F955A3D3E90023FFF76EF802460B46F6
:402E80002046294601F03EF804460D4601F002FA00228346002320462946FFF7CFFA58B1584601F07BF902460B4620462946FFF7BBFA08B90BF1FF3BBBF1160F0DD8DDE952
:402EC0000223484901EBCB01D1E90001FFF7D4FA30B10BF1FF3B002300E00123109300E01090129B9E1B731E079343BFC3F10008002307934FF00008BBF1000F06DB079BF3
:402F0000CDF82CB05B440793002705E00023CBEB0808CBF100070B931E9B092B28D8052BC4BF043B1E931E9BC8BF0025A3F10203D8BF0125032B20D8DFE803F0060E02041C
:402F4000012302E0012308E000230A931F9B002B1DDD9946059321E000230A931F9B0BEB030909F10103012B0593B8BF012315E0012500231E930A9501E001230A934FF0E0
:402F8000FF390022CDF8149012231F9206E04FF001094B46CDF81490CDF87C90DAF8244000226260042101F114029A421CD86268490001326260F6E761436F63A787D23FBD
:402FC000B3C8608B288AC63FFB799F501344D33F0000F07FE6440000EF440000E54400000000F83F004500006168504600F030FCDAF8243020601B680693059B0E2B00F26F
:403000005B81002D00F05881DDE90234BBF1000FCDE90E3430DD9F4A0BF00F034FEA2B1502EBC303E80618CBCDE908340CD5DDE90E01994B05F00F05D3E90823FFF7B6F8EF
:403040000324CDE9020100E00224934E6DB1E90708D5DDE90801D6E90023FEF77DFFCDE9080101346D100836F0E7DDE90823DDE90201FFF79BF820E0CBF1000505B3DDE974
:403080000E01844B05F00F0203EBC203D3E90023FEF762FFCDE902017F4E2D110023022455B1EA0705D5D6E90023FEF755FF013401236D100836F3E71BB1CDE9020100E0E8
:4030C0000224109BE3B1DDE902560022734B28463146FFF7B3F998B1059B8BB1B9F1000F40F3E6800BF1FF330893314600226C4B2846FEF731FF0134CDE902014E4602E05F
:40310000059ECDF820B0204601F048F8DDE90223FEF722FF634B002200F0F4FEA1F1507304460C931D46D6B9DDE9020100225E4B00F0E6FE22460C9BCDE90201FFF79CF922
:40314000002840F03F820C99224601F10043DDE90201FFF773F9002840F02B82A8E00A9A4C4B711E002A49D003EBC103D3E9002300204E49FFF71AF822462B4600F0C0FE58
:40318000CDE90C01069CDDE9020101F083F8054601F004F802460B46DDE9020100F0B0FEDDE90C23303504F8015BCDE90201FFF745F9002840F01D83DDE90223002037491B
:4031C00000F09EFEDDE90C23FFF738F9002840F0D180069BE31AB3426ADADDE90C0100222F4BFEF7B9FE0022CDE90C01DDE902012B4BFEF7B1FECDE90201C4E703EBC101B0
:403200002246D1E900012B46FEF7A6FE069BCDE90C011D469C19DDE9020101F03BF8064600F0BCFF02460B46DDE9020100F068FE303605F8016BAC42CDE902014FF0000292
:4032400022D11A4BDDE90C0100F05CFE02460B46DDE90201FFF710F9002840F08B80DDE90C230020114900F04BFE02460B46DDE90201FFF7E3F8D8B114F8013C621E302B8D
:4032800040F0B7821446F7E7054BFEF765FECDE90201C0E700450000D84500000000F03F0000244000001C40000014400000E03FDDE90E34CDE90234139B002B7CDBBBF1D1
:4032C0000E0F79DCAB4B03EBCB03D3E900671F9B002B14DA059B002B11DC40F06C810022A54B30463946FEF737FEDDE90223FFF7B9F8059D2E46002840F05F8165E1069CE6
:40330000DDE9028932463B4640464946FEF74EFF00F0C0FF054600F041FF32463B46FEF71BFE0B4602464946404600F0E9FD05F1300E069B04F801EBC3EB040E059B734562
:403340002DD102460B4600F0DDFD8046894602460B4630463946FFF771F878B942464B4630463946FFF760F8002800F04482EB0704D440E2DDF820B000E01C4614F8012CF3
:40338000631E392A07D1069A9A42F6D1069930220BF1010B0A701A7801321A702BE20022764BFEF7D9FD0022002380468946FFF73BF80028A6D01EE20A9A002A2BD01E9A6F
:4033C000012A0ADC119A12B103F2334302E0129BC3F136033D46444613E0059B5D1EAF42BFBF0B9BEA1B9B180B93059BB6BF2F467D1B0025002BA7BF4446059BC3EB080425
:403400000023079A01211A4450469844079200F0F3FA064602E03D4644460A9E5CB1079B002B08DDA342A8BF2346079AC3EB0808E41AD31A0793002F1DDD0A9BABB18DB1BD
:4034400031462A46504600F071FB049A01460646504600F0DAFA04990890504600F02DFA089B04937A1B06D000E03A460499504600F05CFB04900121504600F0BDFA0B9BEE
:4034800005465BB31A460146504600F04FFB1E9B0546012B18DC029B83B9039BC3F3130373B9039B23F000473F0D3F054FB1079B08F1010801330793012702E0002700E09E
:4034C000029F0B9B73B100E000272B6905EB8303186900F044FAC0F1200004E01E9B012BD9DD0B9F0120079B184410F01F0008D0C0F12003042B02DDC0F11C0002E006D02A
:4035000018461C30079B8044034404440793B8F1000F05DD42460499504600F055FB0490079B002B05DD29461A46504600F04CFB0546109B23B32946049800F096FB00285E
:403540001EDA00230A220499504600F0CDF90A9B0BF1FF3B0490002B00F05F81314600230A22504600F0C0F9B9F1000F06463FDC3BE000BF004500000000144000002440B5
:40358000059B002B2BDC1E9B022B28DDDDF81490B9F1000F11D129464B460522504600F0A3F901460546049800F05FFB00280CDC03E0354600E000252E461F9B069C6FEADD
:4035C000030B09E03546DDF820B0069B069A5C1C312313700BF1010B05960026F7E00A9BDDF8149023B9069CB2E01E9B022BCFDC002C05DD31462246504600F0E5FA064627
:403600009FB17168504600F023F90446326906F10C01023292000C30FEF784FF01222146504600F0D1FA059000E00596029B069F03F00103079329460498FFF7D9FA314653
:40364000044600F13008049800F00FFB059A02902946504600F025FBC36802463BB901460A90049800F001FB0A9A034600E00123114650460A9300F020F90A9B53B91E9A3E
:4036800042B9079A32B9B8F1390F2AD0029B002B1CDC1DE0029A002A04DB1BD11E9ACAB9079ABAB9002B13DD01220499504600F08BFA2946049000F0D8FA002803DC07D171
:4036C00018F0010F04D0B8F1390F0AD004F131087C1C0CE0002B07F101040BDDB8F1390F03D139233B70013756E008F1010887F800806CE0069B2746E31A4B4504F8018CA6
:403700003BD000230A220499504600F0EDF8059B04909E424FF00A024FF000033146504604D100F0E1F80646059084E700F0DCF8002306460A220599504600F0D5F80590AA
:4037400079E700230A220499504600F0CDF8049029460498FFF74CFA069B00F1300804F8018BE31A4B45ECDB069B0596B9F1010FACBF4B4401331F4600260122049950462C
:4037800000F022FA2946049000F06FFA002803DC15D118F0010F12D03C4614F8013C621E392B09D1069B934204D10BF1010B3123069A02E01446F0E70133137007E03C46B7
:4037C00014F8013C621E302B01D11446F8E72946504600F072F8059B6BB12EB19E4203D03146504600F069F80599504600F065F801E0DDF820B00499504600F05EF80023EC
:40380000209A23700BF101031360229B1BB11C6001E008480AE0069808E0B9F1000F3FF7E2AE1E9B022B7FF7DEAEB1E615B0BDE8F08F00BFE4440000004870476081FF1F56
:40384000024B0146186800F0E7BA00BF5C81FF1F70B5456A04460E463DB91020FFF7F0FF6062456085600560C560656AEB6843B1636ADB6853F8260078B1026843F82620EB
:4038800017E021220421204600F0B8FA636AE860DB68002BECD1002070BD012101FA06F56A1D9200204600F0A9FA0028F3D04660856000230361C36070BD70B5446A06467E
:4038C0000D463CB91020FFF7BBFF7062446084600460C4603DB1736A6A68DB6853F82210296043F8225070BD2DE9F04106460C460D691F4601F1140E0023DEF800000133FD
:4039000081B202FB0171000C0F0C02FB007089B201EB00419D424FEA10474EF8041BECDCD7B1A3689D4212DB616830460131FFF78FFF8046226904F10C01023292000C30A4
:40394000FEF7F0FD21463046FFF7B7FF444604EB850301355F6125612046BDE8F081030C1B0413B90004102300E0002310F07F4F04BF0002083310F0704F04BF0001043327
:4039800010F0404F04BF80000233002803DB420003D5581C70471846704720207047036813F007020BD0D90722D49A074BBF5B089B08036003604CBF01200220704799B2BA
:4039C00009B91B0C102213F0FF0F04BF1B0A0832190704BF1B090432990704BF9B080232D90702D45B0805D00132036010467047002070472020704710B50C460121FFF774
:403A000027FF01224461026110BD2DE9F74F14460A69236988469A42BEBF0B46A0461C46D8F81070D4F81090D8F80830D8F8041007EB09069E42C8BF0131FFF709FF00F1C2
:403A400014052B4605EB860C0022634502D243F8042BFAE704F1140208F1140102EB890301EB87070093009B0192934257D9B2F800B0BBF1000F23D08946AE464FF000086D
:403A800059F8044BBEF800A0A3B20BFB03A34FEA144ADEF8004043444FEA14480BFB0A84F24604EB13449BB243EA04434F454FEA14484AF8043B01D9D646E1E7CEF80480C1
:403AC000019B0432B3F802A0BAF1000F21D02C4689462B684FF00008B9F800E0B4F802B09BB20AFB0EBEA346F04443EA08434BF8043B59F8043BB4F804E01B0C0AFB03E38B
:403B00004F4503EB18434FEA134801D95C46E3E763600435A7E75CF8043D13B9013E002EF9DC066103B0BDE8F08F00002DE9F843154612F0030206460F4607D0214C013A90
:403B4000002354F82220FFF7CFFE0746AD1036D0746A3CB91020FFF773FE7062446084600460C460D6F82480D8F808404CB940F271213046FFF740FF04460023C8F8080042
:403B800003604FF00008EB070AD5394622463046FFF73BFF814639463046FFF78EFE4F466D100CD0206808B10446ECE7224621463046FFF72AFF2060C0F80080F4E73846FE
:403BC000BDE8F883C84500002DE9F0470C460746914626694FEA621A56444968A368751CAB4202DA01315B00FAE73846FFF730FE002380461A4600F11401534503DA41F8D4
:403C000023200133F9E72AEAEA73206901EB830319F01F0904F1140101EB800E14D0C9F1200C002208689A4600FA09F0024343F8042B51F8042B8E4522FA0CF2F2D8CAF83D
:403C4000042042B1B51C06E0043B51F8042B8E4543F8042FF9D8013D3846C8F810502146FFF72BFE4046BDE8F08703690A6910B59B1A11D192001430143183180A4453F81F
:403C8000044D52F8041D8C4202D007D3012010BD9842F4D3002010BD184610BD4FF0FF3010BD2DE9F8430C460746114620461546FFF7DBFF061E08D131463846FFF7C8FD67
:403CC000012303614661BDE8F883BCBF23462C4638466168BABF1D4601260026FFF7B8FD2B69C660266905F1140904F1140101EB860709EB830800F114054FF0000C51F808
:403D0000042B59F8044B93B29C44A3B2240CC3EB0C03C4EB124202EB23429BB24FEA224CC84543EA02428E4645F8042BE7D8BE450ED25EF8041B8AB26244131403EB1143E4
:403D400092B242EA03424FEA234C45F8042BEEE755F8043D0BB9013EFAE70661BDE8F8832DE9F3411C4601219046089E099DFFF76FFDC4F31302C4F30A5407460CB142F439
:403D800080120192B8F1000F19D002A840F8088DFFF705FE009B48B1019AC0F1200102FA01F10B43C2407B61019200E07B61019B002B14BF02210121BB61396107E001A83E
:403DC000FFF7EDFD019B01217B613961203034B1A4F2334404443460C0F1350009E0A0F2324007EB810330601869FFF7B8FDC0EB41102860384602B0BDE8F08138B502FBD8
:403E000001F4214600F008F8054618B122460021FEF793FB284638BD70B5CD1C25F0030508350C2D38BF0C25002D064601DBA94202D90C23336046E000F05CF8234B1C68B1
:403E40001A462146A1B10B685B1B0ED40B2B03D90B60CC18CD501EE08C420BBF63684B681360636018BF0C4615E00C464968E9E7174C23681BB9304600F02CF8206029466A
:403E8000304600F027F8431C18D0C41C24F00304A0420DD12560304600F02DF804F10B00231D20F00700C31A0ED05A42E25070BD211A304600F00EF80130EBD10C23336008
:403EC000304600F018F8002070BD00BFE081FF1FDC81FF1F38B5064C0023054608462360FCF7FEFB431C02D1236803B12B6038BDBC82FF1F7047704781F0004102E000BFCE
:403F000083F0004330B54FEA41044FEA430594EA050F08BF90EA020F1FBF54EA000C55EA020C7FEA645C7FEA655C00F0E2804FEA5454D4EB5555B8BF6D420CDD2C4480EAB6
:403F4000020281EA030382EA000083EA010180EA020281EA0303362D88BF30BD11F0004F4FEA01314FF4801C4CEA113102D0404261EB410113F0004F4FEA03334CEA13334A
:403F800002D0524263EB430394EA050F00F0A780A4F10104D5F1200E0DDB02FA0EFC22FA05F2801841F1000103FA0EF2801843FA05F359410EE0A5F120050EF1200E012A9F
:403FC00003FA0EFC28BF4CF0020C43FA05F3C01851EBE37101F0004507D54FF0000EDCF1000C7EEB00006EEB0101B1F5801F1BD3B1F5001F0CD349085FEA30004FEA3C0CCE
:4040000004F101044FEA445212F5800F80F09A80BCF1004F08BF5FEA500C50F1000041EB045141EA050130BD5FEA4C0C404141EB010111F4801FA4F10104E9D191F0000F77
:4040400004BF01460020B1FA81F308BF2033A3F10B03B3F120020CDA0C3208DD02F1140CC2F10C0201FA0CF021FA02F10CE002F11402D8BFC2F1200C01FA02F120FA0CFC18
:40408000DCBF41EA0C019040E41AA2BF01EB0451294330BD6FEA04041F3C1CDA0C340EDC04F11404C4F1200220FA04F001FA02F340EA030021FA04F345EA030130BDC4F192
:4040C0000C04C4F1200220FA02F001FA04F340EA0300294630BD21FA04F0294630BD94F0000F83F4801306BF81F480110134013D4EE77FEA645C18BF7FEA655C29D094EA36
:40410000050F08BF90EA020F05D054EA000C04BF1946104630BD91EA030F1EBF0021002030BD5FEA545C05D14000494128BF41F0004130BD14F580043CBF01F5801130BD22
:4041400001F0004545F0FE4141F470014FF0000030BD7FEA645C1ABF194610467FEA655C1CBF0B46024650EA013406BF52EA033591EA030F41F4002130BD00BF90F0000FA8
:4041800004BF0021704730B54FF4806404F132044FF000054FF0000150E700BF90F0000F04BF0021704730B54FF4806404F1320410F0004548BF40424FF000013EE700BF60
:4041C00042004FEAE2014FEA31014FEA02701FBF12F07F4393F07F4F81F06051704792F0000F14BF93F07F4F704730B54FF4607401F0004521F0004120E700BF50EA01028C
:4042000008BF704730B54FF000050AE050EA010208BF704730B511F0004502D5404261EB41014FF4806404F132045FEA915C3FF4DCAE4FF003025FEADC0C18BF03325FEA11
:40424000DC0C18BF033202EBDC02C2F1200300FA03FC20FA02F001FA03FE40EA0E0021FA02F11444C1E600BF4FEA410C7FEA6C5C02D150EA013C0AD14FEA430C7FEA6C5C0F
:4042800002D152EA033C02D14FF0000070474FF0010070474FEA410212F5001215D211D56FF47873B3EB625212D94FEAC12343F0004343EA505311F0004F23FA02F018BF6A
:4042C000404270474FF00000704750EA013005D111F0004008BF6FF0004070474FF00000704700BF00000000004F0040240040510040300000000140800400050140000B71
:4043000000140140000800400140000A004C0140000200500140200080040140240B00488000000030313233343536373839414243444546000000002800000000010400CA
:40434000010000000000000000014359555342000000303030303100000000000000000012034D0053004600540031003000300001000000010000007C4300000100000022
:40438000C044000000000000000000000100000094430000010000007C44000003000000C04300000000000000000000000000000000000000000000BC430000020A00004F
:4043C00000008103080002000100820240000A000100030240000A0002030000040309042C0343007900700072006500730073002000530065006D00690063006F006E00F1
:4044000064007500630074006F007200100355005300420055004100520054003803430044004300200043006F006D006D0075006E00690063006100740069006F006E0037
:40444000200049006E007400650072006600610063006500260343004400430020004400610074006100200049006E007400650072006600610063006500000009024300FF
:40448000020101C032090400000102020103052400100104240202052406000105240100010705810308000A09040100020A0000040705820240000007050302400000004E
:4044C0001201000202000008B40432F20100010280014300494E4600696E66004E414E006E616E003000496E66696E697479004E614E00504F534958002E0000000000008D
:40450000000000000000F03F000000000000244000000000000059400000000000408F40000000000088C34000000000006AF8400000000080842E4100000000D01263411A
:404540000000000084D797410000000065CDCD41000000205FA00242000000E876483742000000A2941A6D42000040E59C30A2420000901EC4BCD64200003426F56B0C4323
:404580000080E03779C3414300A0D8855734764300C84E676DC1AB43003D9160E458E143408CB5781DAF154450EFE2D6E41A4B4492D54D06CFF08044F64AE1C7022DB5444D
:4045C000B49DD9794378EA4405000000190000007D000000000000000080E03779C34143176E05B5B5B89346F5F93FE9034F384D321D30F94877825A3CBF737FDD4F157515
:40460000F8B500BFF8BC08BC9E4670474D0000005D070000F8B500BFF8BC08BC9E4670472900000038460000C880FF1FD0000000280100000000000000000000C082FF1F65
:4046400000C2010000000800C201000000080000A120000000000200000000000000E02EC05D00001800000000366E010000000000000000000000000000000000000000F9
:40468000000000000000000000000000D2440000000000000000000000000000000000000000000000000000000000000000000000000000000000000000000000000000E4
:4046C000000000000000000000000000FC80FF1FF9440000FA440000FA440000FA440000FA440000FA440000FA440000FA440000FA440000FA440000FFFFFFFFFFFFFFFFBD
:40470000FFFFFFFFFFFF000000000000000000000000000000000000000000000000000000000000000000000000000000000000000000000000000000000000000000007F
:404740000000000000000000000000000000000000000000000000000000000000000000000000000000000000000000000000000000000000000000000000000000000039
:4047800000000000000000000000000000000000000000000000000000000000000000000000000000000000000000000000000000000000000000000000000000000000F9
:4047C00000000000000000000000000000000000000000000000000000000000000000000000000000000000000000000000000000000000000000000000000000000000B9
:404800000000000000000000000000000000000000000000000000000000000000000000000000000000000000000000000000000000000000000000000000000000000078
:020000040003F7
:0200000480007A
:4000000001450040064F0040085200400664004001650040510001402D01014051020140480301401504014059050140530601404F07014016090140660A0140550B0140BE
:40004000350C0140360D0140040F01404C140140471501405E160140511701400F190140041A01400B1B01400740014012410140104201400B43014002450140024601400C
:40008000074701400948014009490140094C0140034D014007500140025101407E0201100A360D10161B1930224B00100110040F08040914180861107C4681728238850F73
:4000C0008B6F8C0F8D6F840F08040E021501170619011B021D021F012101230A26053002320133083404350437033B803E10580459045F01800881048202850289278B08D5
:400100008C068D268E188F0991109510960199109D299E019F06A010A109A204A41EA52FA81EA906AC0AAE14AF09B110B201B307B520B61EB708BB08BE04BF10C004C504FA
:40014000C9FFCA07CBFFCC40CD20CEF0CF05D008D602D712D804D904DA04DB04DC22DD22DF01E040E1A8E240E3200050054007400C800E101210154016401714181819010F
:400180001D401F04214822902405250629012E202F9231083290358037153DA03E0A4102430246804D0856015C046F15762A81408C04C093C2A0C4F4CAF1CCFECEF0D08027
:4001C000D640E001021203030408050907100830090C0A800B110E3610081110130C151016081AC11B201E082224251428302A402B202C122D1C2E242F02311F320833203C
:4002000034F0360738083A203E403F044041410345E046B0470C481A49FF4AFF4BFF4EF04F44500C54185604580459045A045B045C225D225F0166C06A406B028110850F6A
:40024000890A8B058D058F0A950799209D039F0CA10CA303A920AD20B110B320B50FB908BF05D904DF010544074409400A010C020E291540164017101D801E181F80200478
:4002800021102225250528422A102F293028328035083601372038A439013C103D033E044480450846014F01560457205C01658567286D4081848A018D01900193089440CD
:4002C00095409610972099489A2B9B149ED09F40A002A102A280A480A550A780A802A984C0F0C2F0C4D0CA7DCCEECEEFD0D0D680D8B0E222E6420C9E0E600F02103012C90A
:400300001B011CCF1E302094226024FD260228732E0F32FF330135023E04580459045F0101800410050908400A820E06100812A216011A201C101D491F11202021102550CA
:40034000261027202D402E212F1030203610374938403D803E0A3F10458247214A084B204C024E08548057085D105E885F0165406680678078807A01810483208504861081
:4003800088408B408C028F0891409208931194B09604972299089A2F9B409CC29E909F20A002A182A2A0A302A4A8A558A611A708A840AB42AE40AF10B110C071C2C9C48FA2
:4003C000CAF0CCF4CEF8D0B0D230D6F0D880E002E68501770211081109010BF20C020D840E100F1011C01324160817071C112308260429C12A102B122C042DB72E082F4069
:4004000030103403350F360C37F038203E015280580459045B045C025F0180388101830284028604880289018A048B0A8C588D018E208F02900492029440950496089802D5
:4004400099049A049C609E08A060A210A401A504A801A902AB01AE78AF10B006B108B303B478B510B601B704B880B980BA02BB08BF40D804D904DF01000401810308041005
:400480000503061B0720080809480A800B040E020F1010201102136015541604188019601A801B111E8520242109230225402705280829042B022DA02E402F40300833202D
:4004C0003705384039223C203D013F405C025D017680810183108908903091649228931194C895109687981299059A059E10A008A2A0A322A460A647A81CA980AC10B0308D
:40050000B402C0DFC2AFC4EFCABECCC6CEBDE405E808EA05EC01834088089440952097209D809FC0A010A408A588A622A708A880A904AA50AD20B004B301B520E424EA30DE
:40054000EC200006057F080309A30B5C0C050F0111FE1301150E17F019961B681DC51F3A2806340735FF38203F104051410349FF4AFF4BFF4DA04F015018580459045A043C
:400580005F016040628064406540668068406A806C406D206E80820F87018808890E8A018BF08DFE8E108F0194679810997F9CCC9D969E029F68A5A3A75CA8CCAA01ACABB4
:4005C000ADC5AE04AF3AB00FB2E0B3FFB410B808BE10BF04C051C102C534C6E0C72CC83BC9FFCAFFCBFFCDAFCE07CF01D018D40FD804D904DA04DB04DF05E040E280E44026
:40060000E540E680E840EA80EC40ED20EE80012002020340041007810C800D200E20111014011608180819201A081C241E702008242028082B082C202E482F103008322212
:40064000334036103780384839303C103DA03E04418043084408458048034C024D084E40560357145C045D805E025F206504661079047A107E048020824287208A1092049A
:4006800094209504968098019C289D089E03A001A150A201A4A0A508A714B001B140C0DBC2E0C4C2CA50CC3FCE7ED03AD218D6F0D860DE20E420EC200102020806010A045B
:4006C0000C080D021602170118021C021F01200228082C022D013001310232083406370139023E043F40540F580459045B045F018301860188088E049101920A98049B0325
:400700009C01A304B004B102B202B408B504B601B701BE51BF40D280D40FD804D904DB04DF0500100108020104600508074009200AC00B020CA00D08140B168018101982AA
:400740001A081C401D101E141F0120022122264027402A012F0131123408374038023E42582059825A085C025D045E906328700179049A80A110A201C0F7C2EBC4D0CA1123
:40078000CC55CE91D6FFD806DE02E202E602811082808E01E0100007010403080710080A09100A050D010E10100F110114031501160C1B021E201F10200C21082203230508
:4007C0002504270829012C052D042E0A2F08300F310C34103503362037103B023F40540F580459045B045F01830A85068708889E8A608CFD8E029030910692C99318949425
:40080000966097019901A0CFA114A230A308A60FA710A906AB08AC73AF01B11EB501B6FFBB02BE40BF10D804D904DC20DF0101A003400480052009080A400B020D0910409E
:400840001340144215041745188019811A401B101F4021012250234825102601288029A02B102D122E8430103148330136113708388039043B123E0A59155A8080408210B5
:4008800084808501911092049312964097C0981299769A8A9B059F08A108A210A510A601AD81AF04B201C0CBC23DC4B9CAFFCCEFCECFD60FE001E406E610EC020E01170153
:4008C0001C022B0230013102340235013E104026410349FF4AFF4BFF4DA04F015018580459045A045F016040628064406540668068406A806C406D206E80820F85078610D1
:40090000880C89018A018B028C078F10900892019307942097209B089C0C9D019E029F02A240A304A40BA604A860A907AD04AE20B040B10FB210B310B420B520B60FBE116A
:40094000C026C103C5C3C624C70EC81FC9FFCAFFCBFFCDAFCE07CF01D018D804D904DA04DB04DF01E040E280E440E540E680E840EA80EC40ED20EE8000140280030205805B
:4009800009040A820F0110811104122819111A021B881E081F012101220A23142440261028042B812F0432923308370838B039044008430444084514470448684C084E041D
:4009C00050C452106401654068046940800281058404870288048D409024911092AC93019448964297C4981299629A8A9B059E10A108A2A0A301A460A607A708AD40B440D3
:400A0000B702C08FC28DC40FCA2DCC4FCE0ED066D224E004E208E802EE0281808410944097209D80A010A622A708AD10B588B780E060E810EC10EE0239083F0459045F01D0
:400A400023208040820286208F209440A622AF08B310E610E82030103202364037083B10CCF0CE1001880620070232206608841086028A088F0897109C109F08A642C0F029
:400A8000CC10D880E240E6401340620487028B1097109B02A660A908AA20AB02AD80C440D840E440E830ECA01B081F01660483019E04A640AE20AF40C630D880E420860408
:400AC0008710960497200A040B200F40800196049720C20E0208050266049E04A308AE40C060D880EE4057088E049E04A308AD02AE08D440E810EC105C80630888808F04FB
:400B00009002AF40D604D802E00670019002DC01000508050A050C010E0110051A0500EA010F0000562009000010020068081300007C0082000000C300CF0030003C16C168
:400B4000680415000000000C00FF000000300000000429081B00077000B0603F80002AA0000040005406020001000E0C14FFFFFF62A0F0410C00000001000400040404043D
:400B80002222000100000000000040020010301000101012000000000000000000000000000000001000EF1010001000000000000800001C1C001000000000004000060067
:400BC00000000000C0000000E01F1F001400000000020200000000001000007B7B0008000000000000000000000000000000000000000000000000000000000000000000F1
:400C000000000000000000000000000000000000000000000000000000000000000000000000000000000000000000000000000000000000000000000000000000000000B4
:400C40000000000000000000000000000000000000000000000000000000000000000000000000000000000000000000000000000000000000000000000000000000000074
:400C80000000000000000000000000000000000000000000000000000000000000000000000000000000000000000000000000000000000000000000000000000000000034
:400CC00000000000000000000000000000000000000000000000000000000000000000000000000000000000000000000000000000000000000000000000000000000000F4
:0200000490006A
:0400000000004005B7
:0200000490105A
:04000000BC90ACAF55
:0200000490303A
:02000000257B5E
:0200000490402A
:4000000000000000000000000000000000000000000000000000000000000000000000000000000000000000000000000000000000000000000000000000000000000000C0
:400040000000000000000000000000000000000000000000000000000000000000000000000000000000000000000000000000000000000000000000000000000000000080
:400080000000000000000000000000000000000000000000000000000000000000000000000000000000000000000000000000000000000000000000000000000000000040
:4000C0000000000000000000000000000000000000000000000000000000000000000000000000000000000000000000000000000000000000000000000000000000000000
:0200000490501A
:0C00000000012E16106900012E3435E4BA
:00000001FF