:400000000080002011000000610500006105000008B5044B1A6803F53F5302331A6000F0BFFA00BFFA46004010B5054C237833B9044B13B10448AFF300800123237010BDF2
:400040002882FF1F00000000BC4B0000084B10B51BB108490848AFF300800848036803B910BD074B002BFBD0BDE81040184700BF000000002C82FF1FBC4B0000C880FF1F32
:40008000000000000122014B1A7070474482FF1F10B5044601F00EF80028FBD0002384F83F30212384F83E30204603F0AFF881B2204600F0B7FF10BD10B51E4B5B784BB966
:4000C00000F050FE002834D000F060FF0122194B5A7010BD00F0E2FF58B300F0F7FF0D2801D00A280DD1134B5B8813B312490024CC54124803F082F80E4B5C8001221A7101
:4001000010BD082801D07F2806D10A4B5B881BB1013B084A538010BD064B5B883E2B03D9212000F0A7FF10BD591C024A5180024AD05410BD4482FF1F6C82FF1FCC82FF1FF9
:4001400010B562B600F032FB00F0BCFA00F0A0FC2E4800F0C5FC0121002000F0CBFD002000F082FA002001F037FF2948FFF790FF284B1B785BB2EBB100F06EFA02F0CEF8AA
:400180000022254B02F05AFA244C02460B462449204603F00FF82348FFF77AFF2046FFF777FF2148FFF774FF002000F05DFA0022184B1A70FFF780FF164B1B79012BD7D15F
:4001C000164C2046FFF764FF204602F03FFBC8B100F0FAFA0446114802F038FBC0F1640000FB04F002F09AF80022104B02F026FA02F00CFB80B200F091FA00F0EBFA0C4841
:40020000FFF746FF0022034B1A71B1E785000000CC80FF1F4482FF1F00804C40CC82FF1FC04B00000C81FF1FC84B000000005940CC4B0000FEE700BFF0B40022174611E074
:4002400050F82760F3B226F0FF0608E001EB420511F812406D78A5550132013BDBB2002BF4D101372A2FEBD9F0BC704708B50A46002102F026FB08BD38B501222F4B1A80CC
:4002800018232F4A137016210232118002321370172102321180023213703321023211800232137040F2E732264B1A801B2202331A70062203F26E231A705222A3F5807347
:4002C0001A70214B1B78DBB2204A13704FF4E1621F4B1A8041F25122023B1A80002419250CE01C4B1B7803F0010343EA440404F003044FF4F07001F07FFE013D0DB1032C09
:40030000EFD115B90320FFF795FF134A4FF48073138007231370002310490B7048200231087013700532137002220D4B1A700D4A137843F01F03137038BD00BF80400040F4
:4003400082400040904000400F010049A14600402242004025420040044000400640004001400040A2430040F8B5184B1B78DBB2174E3478E4B2174F3D78EDB203F0070164
:40038000154A11701B090132137044F00303337045F003033B70DD22104B1A700C22C0331A7040230E4A137002321370D0220D4B1A70202203331A700A2000F0A3FA3D7002
:4003C00034704422084B1A70F8BD00BFCF010049F8460040F94600406E5800403D51004009590040285B00407658004008B502F05DFA08BD38B572B6414A137843F0040315
:40040000137000240CE03F4D630019194A0011462A44084691882858FFF728FF0134E4B2072CF0D900240BE03649A3001819420088188022416B006BFFF7D8FF0134E4B299
:40044000002CF1D030494FF09040FFF7F5FE04212E48FFF70BFF04222D492E48FFF7C6FF2D4B2E4A136002F56862136002F554522B32137843F0020313701032137843F0DF
:4004800002031370264C237843F040032370A2F58632513A137843F010031370082221492148FFF7A3FF0A2220492148FFF79EFF0A2220492048FFF799FF08221F492048C5
:4004C000FFF794FF08221F491F48FFF78FFF08221E491F48FFF78AFF1E4A137843F0080313701D4D61232B70FFF7C6FE81232B70FFF73AFF0E2221461848FFF777FF38BDC2
:40050000E8460040E44B0000AC00004800760040B00F00480876004004040084580C0140A0430040780F004802510040800F0048C05100408C0F0048F0510040980F00487E
:4005400012510040A00F004822510040A80F0048325100402243004000480040B043004008B502F077F903680C2B00D1FEE7FEE708B5094B1A681044084BC31AB3F5007F72
:4005800002DC054B186005E002F064F90C2303604FF0FF32104608BD5081FF1F2884FF1F08B5104E104D16E029686B68AC68002204E051F8040B43F8040B0432A242F8D11A
:4005C000E868002203E0002143F8041B04328242F9D11035013E002EE6D102F041F9FFF7AFFDFEE7010000005850000008B5114A114B1A60114A136843F40073136000239E
:400600000AE0032B03D80E4A52F8231000E00D490D4A42F8231001332F2BF2D90B4B1A780B4B1A70084A0B4B1A60FFF7E3FE00F04DF908BD0004FA050CED00E014ED00E026
:4006400000000000610500000080FF1FBC760040C080FF1F08ED00E008B500F0D7F8A0F5004000B208BD00BF08B5002803DB80B280F4004002E0A0F5004080B200F0C0F810
:4006800008BD00BF024B187800F00F00704700BF68640040014B1870704700BF8864004008B50F20FFF7F6FFFFF7ECFF01F0ACFC034A137843F01003137001F0A9FC08BD95
:4006C0009864004008B500F0F3F84FF4004000F097F8044B1B7813B90122024B1A70FFF7DFFF08BD5982FF1F084A137843F0010313701032137843F00103137002F64D3255
:40070000137843F001031370704700BFA3430040014B1880704700BF044F0040014B1880704700BF064F0040014B1870704700BF034F004008B51A4A137843F002031370B9
:400740000232137803F08F0343F040031370154B1A7802F0CF021A701A7842F030021A701A7802F0F0021A701A7842F00F021A7042F21070FFF7CCFF41F28830FFF7CEFFFB
:400780000020FFF7D1FF084A137843F00103137002F65E32137843F00103137008BD00BF004F00400B4F0040A343004008B5054B1B7823B9FFF7BEFF0122024B1A70FFF7FD
:4007C00093FF08BD5A82FF1F014B188880B27047044F0040704700BF024A137843F080031370704779650040014B1870704700BF8B650040014B1878704700BF6B65004009
:40080000014B1880704700BF14680040024B1B78024B188880B270470A64004094680040014B188880B2704794680040014B1880704700BF54680040014B1880704700BF41
:400840007468004008B501E0FFF7EAFFFFF7D2FF10F0400FF8D108BD08B5134B1A7802F0F8021A701A7802F0FC021A70FFF7EAFF4FF40040FFF7DAFF4FF40040FFF7C0FFA3
:400880000020FFF7B1FFFFF7B5FF4FF40040FFF7D3FF01F0B9FB054A137843F01003137001F0B6FB08BD00BF796500409B65004008B5054B1B7823B9FFF7CEFF0122024B02
:4008C0001A70FFF789FF08BD5B82FF1F0B4A7F2313708021517007E0DA0002F1804202F5F042013BDBB21370002BF5D1DB0003F1804303F5F04300221A7070475481FF1F65
:4009000001BE704708B5034B1B7A00FB03F001F073FB08BD5C81FF1F70B504460E46074B1D681F2802D90020FFF7EAFF04F01F04103455F8240045F8246070BD08ED00E04A
:4009400038B504460D46072902D90020FFF7D8FF1F2C02D90020FFF7D3FF04F01F0000F1604000F564406D01EDB2057038BD00BF134B1B78DBB20360124A127843EA02235B
:400980000360114A127843EA024303600F4A127843EA026303600E4B1B78DBB243600D4A127843EA022343600B4A127843EA024343600A4A127843EA02634360704700BFD3
:4009C0000301004904010049EC4600400201004901010049000100490501004906010049084A137843F0040313701032137843F00403137002F66532137843F00103137072
:400A0000704700BFA3430040014B1870704700BF1B4F0040014B1880704700BF1C4F0040014B1880704700BF1E4F004008B5154A137803F0010313700232137803F0FC0348
:400A40001370114B1A7802F0CF021A701A7842F030021A701A7802F0F0021A701A7842F00F021A70094A137843F0010313706320FFF7D0FF6320FFF7D3FF0020FFF7C4FFD5
:400A800008BD00BF184F0040234F0040194F004008B5054B1B7823B9FFF7C8FF0122024B1A70FFF79DFF08BD5C82FF1F014B1B689865704708ED00E04001C0B2014B18704C
:400AC000704700BF06E400E04022014B1A60704700E100E04022014B1A60704780E100E010B50446FFF7F6FF2046FFF7DFFF0720FFF7E2FFFFF7E8FF10BD00BFF8B501F0BD
:400B000083FA0746404A137843F0010313701032137843F00103137001263C4B1E700225943B1D7002F5E2521B32137803F07F0313700020FFF7E6FE354C237803F0F903D6
:400B40002370344A137803F0DF0313702378334323703046FFF7D6FE2820FFF7D3FE2E4B1A7802F07F021A701A7802F0BF021A7023782B4323702846FFF7C4FE237843F027
:400B8000040323700023254A137001321370384601F03EFA07211720FFF7D2FE20491720FFF7BAFE07211820FFF7CAFE1D491820FFF7B2FE07211520FFF7C2FE1A491520A9
:400BC000FFF7AAFE07213046FFF7BAFE17493046FFF7A2FE07212846FFF7B2FE14492846FFF79AFE07210320FFF7AAFE11490320FFF792FE07210C20FFF7A2FE0E490C20B1
:400C0000FFF78AFEF8BD00BFA54300409D6000409443004012600040F8510040846000405D1600004514000059160000B9150000E91500001D1600006516000008B5214B09
:400C400018700023204A1370204A1370204A1370204A1370204A1370204A1370204A1370204B4FF400021A604FF080721A604FF400121A6002221A6004221A6008221A60C8
:400C800011B1012906D00BE0174A137803F0FE0313700AE0144A137843F00103137004E0114A137843F00103137003220F4B1A708022203B1A70012001F09EF904220C4B5D
:400CC0001A7008BD6583FF1F6883FF1F8483FF1F8783FF1F7C83FF1F8683FF1F8983FF1F6483FF1F00E100E009600040286000401260004038B504460D46064B1B7823B9A8
:400D0000FFF7FCFE0122034B1A7029462046FFF795FF38BD5D82FF1F00230A4A13700A4A13700A4A13700A4A13700A4A13700A4A13700A4A13700322094B1A708022203B73
:400D40001A7070476883FF1F8483FF1F8783FF1F7C83FF1F8683FF1F8983FF1F6483FF1F28600040014B1878704700BF8783FF1F00EB40008300024A13445878704700BF90
:400D80008C83FF1F431EDBB2072B0BD8064B00011A18185C00F00F00537843EA0020023880B2704700207047FC5F0040431EDBB2072B3CD8F0B4074600EB4004A3001C4C00
:400DC0002344DB889BB2C3F500739A4208D900EB400293002344DA8892B2C2F5007292B200EB4004A300124C2344DB7843EA1223104D04012E192B55D3B2737039B909E002
:400E0000CE5C3D010C4C665501339BB200E000239A42F5D8420002449300054A134400225A705A79D2B20001044B1A54F0BC70478C83FF1FFC5F004078600040FE5F004068
:400E4000431EDBB2072B0BD8420002449300054A134400225A705A79D2B20001024B1A54704700BF8C83FF1FFE5F004070B5D9B1054614460E46C8B1082819D8FFF782FFB6
:400E8000A04203D22846FFF77DFF0446002305E02901094A525CF25401339BB2A342F7D32846FFF7CDFF04E0002402E0002400E00024204670BD00BF7860004010B4FF2415
:400EC00000230EE0094AD25C02EB42029100084A11448A7AD2B2824201D11C4602230133DBB2012BEED9204610BC70475483FF1F8C83FF1F10B5204C2079FFF7DFFF23785A
:400F000013F0800F0ED06378DBB2212B2FD11B4B07221A80C0EBC000194A1044586000F0FFFA10BD144B5B78DBB2202B02D0222B10D01EE0114A07231380C0EBC0031049EE
:400F40000B4453600F4A135C43F00103135400F00FFB10BD084B9B780B4A22F81030094A135C43F00203135400F098F910BD002010BD002010BD00BF006000407083FF1F34
:400F80006C81FF1F4C83FF1F6083FF1F10B500241F4B1C701F4B1C705C700AE01E4B185DC0B2431EDBB2072B01D8FFF749FF0134E4B2012CF2D9194B1B7813F0FF0F1AD071
:400FC000154B1B7813F0FF0F17D0154B1B7813F0FF0F14D0114B1B78DBB2082B11D80E4B1B78DBB2082B0ED80D4B1B78DBB2082B0BD8002010BD012010BD012010BD01207C
:4010000010BD012010BD012010BD012010BD00BF5E82FF1F4C83FF1F5883FF1F5083FF1F5483FF1F70B506460D460F4B1B780F4AD45CE4B204EB440293000D4A13441B89A6
:401040009BB28B4209D204EB44029300084A13441D89ADB20020FFF753FC2A4631462046FFF7A4FE70BD00BF5E82FF1F5083FF1F8C83FF1F00B583B002A901F8010D054BC9
:401080001B78054AD05C0122FFF790FE03B05DF804FB00BF5E82FF1F5083FF1F08B5034B1B78034AD05CFFF763FE08BD5E82FF1F5883FF1F08B5034B1B78034AD05CFFF78F
:4010C00057FE08BD5E82FF1F5083FF1F00B583B0064B1B78064AD05C01220DF10701FFF7C5FE9DF8070003B05DF804FB5E82FF1F5883FF1FC37803F0030390F9020000283C
:401100000FDA032B06D002F001030B48C15442F001020EE0C2F380030848C15442F0040207E0032B05D0C2F340030548C15442F002021046704700BF5083FF1F5483FF1F40
:401140005883FF1F1D4B19781D4A13889BB20B449BB2138000220FE01A494B681B78DBB2194883544B6801334B600132D2B20B889BB2013B9BB20B80124B1B889BB20BB13A
:40118000072AE9D90D4B1B78DBB2082B00D05AB10E490B7883F080030B700F210C4B197002210C4B197004E0022309490B7009490B70094B1A70014B1A7070476483FF1F45
:4011C0006683FF1F7083FF1F00600040FA83FF1F8583FF1F6883FF1F8883FF1F0222074B1A708022064B1A700F22064B1A700023054A1370054A1370012070476883FF1F13
:40120000FA83FF1F8583FF1F6483FF1F8883FF1F08B5FFF797FF08BD10B4194B197801F00F010239C9B2174A13889BB20B449BB21380002011E0144A5468144B1B5CDBB23B
:4012400023705368013353600130C0B20139C9B213889BB2013B9BB213800B4B1B889BB20BB10029E7D10A4B19700A4A137883F0800313700B22084B1A7010BC704700BF78
:40128000296000406683FF1F7083FF1F006000408883FF1FFA83FF1F8583FF1F0623064A1370064A13708022054B1A700022054B1A700120704700BF6883FF1F8583FF1FB6
:4012C000FA83FF1F8883FF1F064B9B6843B1054B9A6810709A6804490988518000229A60704700BF7083FF1F6683FF1F08B5134B1A78D2B21A701B78DBB213F0800F02D076
:401300000F4A137008BD0220FFF7DEFF0D4B1B7803F06003202B05D0402B06D043B900F08FFC06E000F078FE03E000F037FE00E0002010B90322024B1A7008BD2860004058
:401340008583FF1F0060004008B5094B1978094A13889BB20B449BB213800022064B1A700120FFF7B1FF0322044B1A7008BD00BF6483FF1F6683FF1F6883FF1F8583FF1F1A
:4013800008B50B4B1B78DBB2042B06D0062B07D0022B0BD1FFF7D8FF08BDFFF73DFF08BD0320FFF791FF0322024B1A7008BD00BF6883FF1F8583FF1F08B50022044B1A704B
:4013C0000120FFF781FF0322024B1A7008BD00BF6883FF1F8583FF1F08B50B4B1B7813F0FF0F07D0084A137843F0800307490B70002313700022064B1A700120FFF764FF9E
:401400000322044B1A7008BD8683FF1F086000406883FF1F8583FF1F08B5094B1B78DBB2042B06D0062B07D0022B07D1FFF7F0FE08BDFFF7C1FF08BDFFF7CEFF08BD00BF3D
:401440006883FF1F08B5284B1B78DBB213F0100F48D013F0800F0CD003F00F03012B16D1FFF744FF214B1B7813F0800F11D1012312E013F0400F03D0FFF7CEFF01230BE09A
:4014800013F0200F07D0FFF77BFF012304E0002302E0002300E0002323B3134B1B7813F0800F1FD1124B1B78124A12781343124A13701278D2B2934214D10C4B1B78DBB2ED
:4014C000094A127812F0800F07D1084B1B78DBB2054A1370137803F00F03044A1278D2B29342EAD108BD00BF286000408583FF1FFA83FF1F8883FF1F296000400022064B73
:401500001A80064B9B682BB1044A916800230B7092685380704700BF6683FF1F7083FF1F08B50F4B1B889BB213B9FFF757FE15E002220C4B1A7000220B4B1A70FFF7DEFFB4
:401540000A4AD179937943EA0123054A128892B2934201D2024A1380FFF7F4FD012008BD7083FF1F6883FF1FFA83FF1F0060004008B504220B4B1A7080220B4B1A70FFF75F
:40158000BDFF0A4AD179937943EA0123084A128892B2934201D2064A13800B22054B1A70012008BD6883FF1FFA83FF1F006000407083FF1F8583FF1F0122094B1A700F3B06
:4015C0009B7C084B1B7B03F00303934204D0054AD37B83F08003D3730122024B5A7370470B6000408C83FF1F02220A4B1A700F3B93F82230084B1B7E03F00303012B04D095
:40160000054AD37E83F08003D3760122024B5A76704700BF0B6000408C83FF1F04220C4B1A700F3B93F832300A4B93F8243003F00303012B06D0074A92F8273083F08003A8
:4016400082F827300122034B83F82520704700BF0B6000408C83FF1F704700BF08B5FFF75BFB08BD08B500F0BDFC08BD70B588B0054603AC174E0FCE0FC43368237035B329
:4016800022232B7003236B7001A8FFF771F9002402231AE008AA224412F81C2C08A901EB121111F8141CE954581C00212954981C02F00F0208AE324412F8142C2A54DA1CAA
:4016C000A9540134E4B20433DBB2212BE2D908B070BD00BF204C000010B401233EE019461A010C242148845403EB4300820020480244527912F0FF0F13D003EB4300820084
:401700001B480244127912F0800F04D01801194A024494700AE01801164A02440820907004E01801134A0244802090704800084482000F480244D488E4B208010B490144F2
:401740008C71D088C0F30720C871D088C0B20871D288C2F307224A710133DBB2082BBED9FF22054B1A7010BC704700BF706000408C83FF1FFC5F00400A600040074B1A789D
:40178000074B03EBC2035B681A7C824204D9C0001030184440687047002070476583FF1F704C0000F8B5404B1B7813F0FF0F79D03D4B18780138C0B2FFF7E0FF047AC26871
:4017C0003A4B1878C0B200236AE01178884264D13749095CC9B25578A9425ED1917801F07F01D67806F00306DFF8C8E04D000D44AF000EEB07054FF0000C85F803C092F879
:4018000002C085F804C092F803C00EF807C097882F8192F90250002D0DDA012E01D1072700E00D274E000E44B500224E35446F7101266E700CE0012E01D1052700E009273C
:401840004E000E44B5001B4E35446F7100266E70DFF868E00F010EEB07060125B57001FA05F529448D00134929440D89C5F307250EF807500D89EDB27570CE88F6B20E4DCB
:401880003D44AE71CE88C6F30726EE71CE88F6B22E71C988C1F30721697108320133DBB2A34292D3F8BD00BF8783FF1F7C83FF1FF883FF1F8C83FF1F70600040FC5F0040DA
:4018C000034B1A78034B03EBC2035868704700BF6583FF1F704C000008B5084B18780138C0B2FFF74BFF30B142681279023200EBC203586808BD002008BD00BF8783FF1F39
:401900002DE9F047002310E0704D5900CA189600AC190022AA55A270E2702281A272627034462C4462710133DBB2082BECD940B90AE000226649CA546649CA540133DBB210
:4019400000E00023012BF4D9634B1B7813F0FF0F00F0B980604B18780138C0B2FFF70EFF80464368DB7913F0400F05D05B4A137843F00103137004E0584A137803F0FE032C
:40198000137098F808704FF0000A01266FE0D8F80C50002467E0AB7803F07F039E425FD1314606EB46008300484803441B899BB2A888834206D206EB460E4FEA8E03434A3C
:4019C000134418812B784248C35CDBB26878834246D195F802C0DFF8F4E04B000B4498000EEB000383F804C0EB780EF80030EB7803F0030395F90200002813DA012B02D162
:401A00004FF0070901E04FF00D09DFF8C0E04B0003EB010C4FEA8C00704480F805900121417012E0012B02D14FF0050901E04FF00909DFF898E04B0003EB010C4FEA8C0041
:401A4000704480F8059000214170AB790A2B01D0022B05D1524631462846FFF74BFB824608350134E4B2BC4295D30136F6B2082E8DD9D8F80C0000220CE0837803F07F03E2
:401A800010F8084B03EB43039900104B19448C720132D2B2BA42F0D3FFF71EFF104B1860002101230BE0094D5A00D01884002C44E180228992B2114489B20133DBB2082B5C
:401AC000F1D9FFF709FEBDE8F08700BF8C83FF1FF883FF1F6C83FF1F8783FF1F8983FF1F8083FF1F08B5154B1B7903F07F035A1ED2B2072A20D8590019448A0010490A44CC
:401B0000917841F0010191700021D170517841F002015170127912F0800F05D01B01094A1A448D23937004E01B01064A1A4489239370FFF7B3FB08BD002008BD006000408C
:401B40008C83FF1FFC5F0040274B1B7903F07F035A1ED2B2072A44D810B5590019448A0022490A44917801F0FE0191700021D1701F4C1801215C01F07F012154517801F01E
:401B8000FD015170127912F0800F13D003EB43018A0016490A445278D2B2012A04D1224602440C23937019E01B01114A1A440D23937013E003EB43018A000C490A445278B3
:401BC000D2B2012A05D11B01094A1A440823937004E01B01064A1A4409239370FFF75EFB10BD0020704700BF006000408C83FF1FFC5F004010B50E4B1C79E4B20D4B18783D
:401C00000138C0B2FFF7BAFD43681B799C4201D9022C0AD8084A135DDBB208490B55044B9B78DBB21355012010BD002010BD00BF006000408783FF1FF883FF1F6C83FF1FE6
:401C400010B5964B1B78DBB20021954A118013F0800F00F0B380914A5278D2B20A2A00F27981DFE812F06F00770177017701770177010B00770198007701A000874BDB7827
:401C8000DBB2012B09D1FFF71BFE4268844B5A6012221A80FFF744FC10BD804BDB78DBB2022B13D17D4B9878FFF768FD002800F0538142687A4B5A605A68D1785A689278A3
:401CC00042EA01221A80FFF72BFC10BD734BDB78DBB2032B05D032E00A7811440133DBB201E000236F496D4A9278D2B2934203D20A7812F0FF0FEFD1684B9B78DBB2EE2B5D
:401D000000D16949654B9B7813F0FF0F0BD0634B9B78DBB2654A127C934204D1644C2046FFF7A4FC21460B7813F0FF0F00F016810B785B4A13805160FFF7F2FB10BD00F002
:401D40006BF910BD13F0030317D0022B40F0088153490B80514B1B7903F07F0303EB43039A00544B1A449278D2B2534B1A7000225A704B60FFF7D4FB10BD494902230B80A4
:401D80004E4B1A78D2B24C4B1A7000225A704B60FFF7C6FB10BD424B01221A80484A5A60FFF7BEFB10BD3E4A012313803B4B1B7944490B445360FFF7B3FB10BD374A527882
:401DC000013A0A2A00F2CE80DFE812F04C00CC009700CC000B00CC00CC00CC001300CC0030002E4B9B78DBB2374A1370FFF756FA10BD2A4B9B7803F0FF041BB1601EC0B208
:401E0000FFF7BCFC04B110B9002C40F0AD802C4B1B78DBB29C4206D0294B1C7001202B4B1870FFF76DFDFFF739FA10BDFFF7E2FE002800F09B80194A1379DBB21279D2B299
:401E400023490A70234AD25CD2B21E49CB5CDBB29A4204D001221D4B1A70FFF7A3FCFFF71DFA10BD03F00303012B35D04BB1022B7ED10A4B9B7813F0FF0F7BD1FFF764FE4F
:401E800010BD064B9B78DBB2012B75D10B4A137803F0FD031370FFF701FA10BD006000407083FF1FD84C00005C4C0000BC4D00000084FF1F8C83FF1F6082FF1F8983FF1F5F
:401EC0008783FF1FF883FF1F8683FF1F8483FF1F7C83FF1F6C83FF1F2D4B1B79DBB2012B4CD82B4B98781B79DBB22A49CA5C22EA0002CA54FFF7D2F910BD03F00303012BA3
:401F000017D04BB1022B3BD1214B9B7813F0FF0F38D1FFF7E7FD10BD1D4B9B78DBB2012B32D11D4A137843F002031370FFF7B6F910BD174B1B79DBB2012B27D8144B9878D2
:401F40001B79DBB21349CA5C22EA0002CA54FFF7A5F910BD002010BD002010BD002010BD002010BD002010BD002010BD002010BD002010BD002010BD002010BD002010BD02
:401F8000002010BD002010BD002010BD002010BD00600040FC83FF1F8983FF1F08B50B4B1B7813F0800F0CD0084B5B78DBB2012B09D1074B074A5A6012781A80FFF7B0FA18
:401FC00008BD002008BD002008BD00BF006000407083FF1F344C0000014B1870704700BF70640040024B1878C0F38010704700BF8F450040000000000230800803D000BF0E
:4020000001380046FCD17047EFF3108072B6704780F31088704700BF08B5144B1B7803F00303012B02D0022B04D00FE00F4B1B79DBB20CE00D4B1B7903F07F0303EB430339
:402040009A000B4B1A44937ADBB200E00023022B07D8084A1268D35C022B04D1FEF74AFF08BD002008BD002008BD00BF006000408C83FF1F8083FF1F81F0004102E000BF9F
:4020800083F0004330B54FEA41044FEA430594EA050F08BF90EA020F1FBF54EA000C55EA020C7FEA645C7FEA655C00F0E2804FEA5454D4EB5555B8BF6D420CDD2C4480EA55
:4020C000020281EA030382EA000083EA010180EA020281EA0303362D88BF30BD11F0004F4FEA01314FF4801C4CEA113102D0404261EB410113F0004F4FEA03334CEA1333E9
:4021000002D0524263EB430394EA050F00F0A780A4F10104D5F1200E0DDB02FA0EFC22FA05F2801841F1000103FA0EF2801843FA05F359410EE0A5F120050EF1200E012A3D
:4021400003FA0EFC28BF4CF0020C43FA05F3C01851EBE37101F0004507D54FF0000EDCF1000C7EEB00006EEB0101B1F5801F1BD3B1F5001F0CD349085FEA30004FEA3C0C6C
:4021800004F101044FEA445212F5800F80F09A80BCF1004F08BF5FEA500C50F1000041EB045141EA050130BD5FEA4C0C404141EB010111F4801FA4F10104E9D191F0000F16
:4021C00004BF01460020B1FA81F308BF2033A3F10B03B3F120020CDA0C3208DD02F1140CC2F10C0201FA0CF021FA02F10CE002F11402D8BFC2F1200C01FA02F120FA0CFCB7
:40220000DCBF41EA0C019040E41AA2BF01EB0451294330BD6FEA04041F3C1CDA0C340EDC04F11404C4F1200220FA04F001FA02F340EA030021FA04F345EA030130BDC4F130
:402240000C04C4F1200220FA02F001FA04F340EA0300294630BD21FA04F0294630BD94F0000F83F4801306BF81F480110134013D4EE77FEA645C18BF7FEA655C29D094EAD4
:40228000050F08BF90EA020F05D054EA000C04BF1946104630BD91EA030F1EBF0021002030BD5FEA545C05D14000494128BF41F0004130BD14F580043CBF01F5801130BDC1
:4022C00001F0004545F0FE4141F470014FF0000030BD7FEA645C1ABF194610467FEA655C1CBF0B46024650EA013406BF52EA033591EA030F41F4002130BD00BF90F0000F47
:4023000004BF0021704730B54FF4806404F132044FF000054FF0000150E700BF90F0000F04BF0021704730B54FF4806404F1320410F0004548BF40424FF000013EE700BFFE
:4023400042004FEAE2014FEA31014FEA02701FBF12F07F4393F07F4F81F06051704792F0000F14BF93F07F4F704730B54FF4607401F0004521F0004120E700BF50EA01022A
:4023800008BF704730B54FF000050AE050EA010208BF704730B511F0004502D5404261EB41014FF4806404F132045FEA915C3FF4DCAE4FF003025FEADC0C18BF03325FEAB0
:4023C000DC0C18BF033202EBDC02C2F1200300FA03FC20FA02F001FA03FE40EA0E0021FA02F11444C1E600BF70B54FF0FF0C4CF4E06C1CEA11541DBF1CEA135594EA0C0FFA
:4024000095EA0C0F00F0DEF82C4481EA030621EA4C5123EA4C5350EA013518BF52EA033541F4801143F4801338D0A0FB02CE4FF00005E1FB02E506F00042E0FB03E54FF005
:402440000006E1FB03569CF0000F18BF4EF0010EA4F1FF04B6F5007F64F5407404D25FEA4E0E6D4146EB060642EAC62141EA55514FEAC52040EA5E504FEACE2EB4F1FD0C70
:4024800088BFBCF5E06F1ED8BEF1004F08BF5FEA500E50F1000041EB045170BD06F0004646EA010140EA020081EA0301B4EB5C04C2BFD4EB0C0541EA045170BD41F48011B8
:4024C0004FF0000E013C00F3AB8014F1360FDEBF002001F0004170BDC4F10004203C35DA0C341BDC04F11404C4F1200500FA05F320FA04F001FA05F240EA020001F000423B
:4025000021F0004110EBD37021FA04F642EB06015EEA430E08BF20EAD37070BDC4F10C04C4F1200500FA04F320FA05F001FA04F240EA020001F0004110EBD37041F1000189
:402540005EEA430E08BF20EAD37070BDC4F1200500FA05F24EEA020E20FA04F301FA05F243EA020321FA04F001F0004121FA04F220EA020000EBD3705EEA430E08BF20EA43
:40258000D37070BD94F0000F0FD101F00046400041EB010111F4801F08BF013CF7D041EA060195F0000F18BF704703F00046520043EB030313F4801F08BF013DF7D043EA72
:4025C0000603704794EA0C0F0CEA135518BF95EA0C0F0CD050EA410618BF52EA4306D1D181EA030101F000414FF0000070BD50EA410606BF1046194652EA430619D094EA64
:402600000C0F02D150EA013613D195EA0C0F05D152EA03361CBF104619460AD181EA030101F0004141F0FE4141F470014FF0000070BD41F0FE4141F4780170BD70B54FF035
:40264000FF0C4CF4E06C1CEA11541DBF1CEA135594EA0C0F95EA0C0F00F0A7F8A4EB050481EA030E52EA03354FEA013100F088804FEA03334FF0805545EA131343EA1263E7
:402680004FEA022245EA111545EA10654FEA00260EF000419D4208BF964244F1FD0404F5407402D25B084FEA3202B61A65EB03055B084FEA32024FF480104FF4002CB6EB46
:4026C000020E75EB030E22BFB61A754640EA0C005B084FEA3202B6EB020E75EB030E22BFB61A754640EA5C005B084FEA3202B6EB020E75EB030E22BFB61A754640EA9C00AF
:402700005B084FEA3202B6EB020E75EB030E22BFB61A754640EADC0055EA060E18D04FEA051545EA16754FEA06164FEAC30343EA52734FEAC2025FEA1C1CC0D111F4801FF4
:402740000BD141EA00014FF000004FF0004CB6E711F4801F04BF01430020B4F1FD0C88BFBCF5E06F3FF6AFAEB5EB030C04BFB6EB020C5FEA500C50F1000041EB045170BDE3
:402780000EF0004E4EEA113114EB5C04C2BFD4EB0C0541EA045170BD41F480114FF0000E013C90E645EA060E8DE60CEA135594EA0C0F08BF95EA0C0F3FF43BAF94EA0C0F6C
:4027C0000AD150EA01347FF434AF95EA0C0F7FF425AF104619462CE795EA0C0F06D152EA03353FF4FDAE1046194622E750EA410618BF52EA43067FF4C5AE50EA41047FF45A
:402800000DAF52EA43057FF4EBAE12E74A0011D212F5001211D20DD56FF47873B3EB62520ED44FEAC12343F0004343EA505323FA02F070474FF00000704750EA013002D169
:402840004FF0FF3070474FF0000070470A22002100F06ABD014B1868704700BFE881FF1F0E4B70B51E460E4C0025E41AA410A54204D056F8253098470135F8E702F0DAFBE4
:40288000084B094C1E46E41AA4100025A54204D056F8253098470135F8E770BD4050000040500000405000004850000010B5431E0A44914204D011F8014B03F8014FF8E7D4
:4028C00010BD03460244934202D003F8011BFAE770472DE9F04788B0149F002B1E461299B8BF03F1004327F02007B6BF1E4600232D23462F1446109DDDF84CA00B7003D0F1
:40290000452F03D1013501E0032300E0022307AA049206AA03928DE828042246334600F09BFD472F804602D1119BDB0728D5462F08EB050911D198F80030302B0AD100226D
:4029400000232046314602F0C9F818B9C5F10105CAF80050DAF800309944002200232046314602F0BBF808B9302202E0CDF81C9006E0079B994503D9591C07911A70F8E741
:402980004046079B159AC8EB0303136008B0BDE8F087034673B50029B8BF494203F8022BB4BF2D222B22092942701ADD0DF1070216460A2591FBF5F405FB1411092C01F13F
:4029C000300102F8011D2146F4DC3031541E02F8011CB4421A460AD214F8012B03F8012BF7E71A463024214402F8024B5970101A02B070BD2DE9F04F91B00C46DDF8688027
:402A000016461F46054601F0BFFA03681846099300F0FCFB00230E93D8F800300A90073323F0070303F1080294F81890D4F800B0C8F80020D3E90023C4E91223D4F84CA0D8
:402A4000D4F848802AF000430B934FF0FF32A74B40460B9902F074F8A0B94FF0FF32A34B40460B9902F04EF860B9002200234046514602F03DF810B12D2384F843309C4B3B
:402A80009C4A0AE0424653464046514602F058F8002800F09281984B984AB9F1470F8CBF90469846032323612BF0040323604FF0000A3DE0B9F1670F00F08A81B9F1470F07
:402AC00000F0868123600193636800210DF13302059002920093424653460691CDF81090CDF80CE02846FFF7F4FE09F0DF03472B804600F08481B9F1650F0D9900F28D81FD
:402B000001394A4604F150000D91FFF742FF0E9A82468318012A236100F37C812268D10700F178819DF8333013B12D2384F84330009733460FAA2146284600F09FF9013069
:402B400002D14FF0FF3096E123685A0501D4236965E0B9F1650F40F2D580D4E912010022002301F0BBFF78B30123654A31462846B8470130E5D00E9B0D9A9A420BDB236843
:402B8000D80708D423689B0740F111814FF0000804F1190906E10A9B099A31462846B8470130CED04FF0000804F11A090E9B013B9845E7DA01234A4631462846B84701307F
:402BC000BFD008F10108F1E70D9B002B29DC01234B4A31462846B8470130B2D00D9B23B90E9B13B92368D907CCD50A9B099A31462846B8470130A4D04FF0000904F11A0A0D
:402C00000D9B5B42994509DA0123524631462846B847013095D009F10109F1E70E9B4246A7E00E9AA36D9A42A8BF1A46002A914606DC4FF0000A29EAE97904F11A0B11E0BD
:402C40001346314642462846B8470130F1D178E701235A4631462846B84701303FF471AF0AF1010AA36DC9EB03029245F0DB08EB03090D9A0E9B9A420FDB2368DA070CD43F
:402C80000E9B0D9A9844C9EB08089B1A9845A8BF9846B8F1000F08DC0FE00A9B099A31462846B8470130EBD14BE743464A4631462846B84701303FF444AF4FF0000928EAC9
:402CC000E87804F11A0A09E00123524631462846B84701303FF435AF09F101090D9A0E9B9B1AC8EB03039945EEDB4BE7FFFFEF7FD04D0000D44D0000D84D0000DC4D0000F7
:402D0000E04D00000E9A012A01DCDB0738D50123424631462846B84701303FF412AF0A9B099A31462846B84701303FF40AAFD4E912010022002301F0D1FE20B14FF00008DC
:402D400004F11A090EE00E9B08F10102013B19E001234A4631462846B84701303FF4F1AE08F101080E9B013B9845F1DB534604F1500231462846B84701307FF403AFE0E668
:402D80004246012331462846B8470130EED1D8E601234A4631462846B84701303FF4D1AE08F10108E3680F9A9B1A9845F0DBE0680F9B9842B8BF18465DE062680EA8531C3A
:402DC0000DF1340E4BF480637FF474AE062201E012B90122626075E6002106910DF133018DE80C00236005904246CDF81090CDF80CE0029153462846FFF76BFD80460D9B41
:402E0000D81C02DB626893421DDDA9F102095FFA89F970E60133236184E6B9F1660F14D10029636807DD216113B92268D2071DD501330B4419E013B92268D00701D50233FD
:402E400013E0012311E04FF067090D9B0E9A934205DB22682361D10708D5013305E0002BD4BFC3F102030123134423610D9B4FF0000AA36556E611B0BDE8F08F2DE9F047DD
:402E800091461F460A698B6806469342B8BF1346C9F8003091F843200C46DDF8208012B10133C9F800302368990642BFD9F800300233C9F80030256815F0060510D104F12E
:402EC000190A07E00123524639463046C04701301AD00135E368D9F800209B1A9D42F1DB94F843302268003318BF012392060FD5E118302081F843005A1C94F8451022442E
:402F0000023382F8431003E04FF0FF30BDE8F08704F1430239463046C0470130F4D02268D9F80050E36802F00602042A08BF5D1B2269A3680CBF25EAE57500259342C4BF53
:402F40009B1AED184FF000091A344D4509D00123224639463046C0470130D5D009F10109F3E70020BDE8F0872DE9F04317460A7E85B06E2A984606460C460C9B01F1430EBD
:402F800000F0AE8011D8632A22D009D8002A00F0BB80582A40F0CA8081F84520834955E0642A1ED0692A1CD0C0E0732A00F0B08009D86F2A2ED0702A40F0B8800A6842F004
:402FC00020020A603EE0752A24D0782A3AD0ADE01A6801F14205111D1960136884F84230A8E021681A6811F0800F02D0111D196008E011F0400F02F10401196002D0B2F9CE
:40300000003000E01368002B3CDA2D225B4284F8432037E021681A6811F0800F02D0111D196007E011F0400F02F10401196001D0138800E01368227E5C496F2A14BF0A2282
:4030400008221BE078225A4984F845202268186812F0800F00F104051D6003D1550601D5038800E00368D00744BF42F0200222601BB9226822F0200222601022002084F88E
:40308000430001E049490A226568002DA56008DB206820F0040020602BB9002D7DD175460CE0002B79D07546B3FBF2F002FB1033CB5C05F8013D03460028F5D1082A0BD184
:4030C0002368DA0708D5236962689A42DEBF302305F8013C05F1FF35C5EB0E0323612EE008681A6810F0800F496903D0101D1860136808E010F0400F02F104001860136867
:4031000001D0198000E0196000232361754616E01A68111D1960156800216268284600F03FFF08B1401B6060636804E004F1420584F8422001232361002384F84330CDF82B
:4031400000803B4603AA21463046FFF797FE013002D14FF0FF3026E023692A4639463046C0470130F5D023689B0710D5002504F1190907E001234A4639463046C0470130BD
:40318000E7D00135E368039A9B1A9D42F2DBE068039B9842B8BF184605E00B7804F1420584F842308AE705B0BDE8F083E24D0000F34D00000EB400B54FF402719CB0ADF8E7
:4031C00014106FF00041049107914FF6FF711DAB02900690084853F8042BADF81610006802A9019301F0D2FA029B00221A701CB05DF804EB03B07047E881FF1F034611F8A4
:40320000012B03F8012B002AF9D17047034613F8012B002AFBD1181A013870472DE9F0470F4680463F48D0F800903D4615F8014B09EB0400407800F0080000F0FF0608B17F
:403240002F46F2E72D2C03D1BD1C7C78012603E02B2C04BF7C78BD1C13B1102B0AD15BE0302C57D1287800F0DF0058284DD16C7810230235002E14BF4FF0004C6FF0004CEA
:40328000BCFBF3FA0027384603FB1ACC09EB040E9EF801E01EF0040F01D0303C0BE01EF0030E1BD0BEF1010F0CBF4FF0370E4FF0570ECEEB0404A34210DDB7F1FF3F0AD00C
:4032C000504506D801D1644503DC03FB0040012701E04FF0FF3715F8014BD7E77B1C0CD1002E4FF0220314BF4FF000406FF00040C8F800302AB9BDE8F08706B1404272B1EC
:4033000007B1691E1160BDE8F0873024002BB1D10823AFE70A23ADE7302CA3D0AAE7BDE8F08700BFEC81FF1F13460A46014602480068FFF773BF00BFE881FF1F2DE9F74F0C
:4033400003690C6980469C427FDC013C01F114074FEA840E00F1140606EB0E0357F82450019356F824300135B3FBF5F507EB0E09C5B34FF0000A3846B446D34650F8043BA2
:403380009AB205FB02A21B0C4FEA124A05FB03A392B2C2EB0B0BBCF800204FEA134A5A441FFA83FBDCF800308145CBEB134303EB224392B242EA03424FEA234B4CF8042B1D
:4033C000DCD256F80E306BB9019B043B9E421A4602D3C8F8104005E01268043B002AF8D1013CF3E7404600F0F6FF00282BDB304601354FF0000E57F8042B036891B2C1EB5D
:403400000E0E120C99B27144C2EB134303EB214389B24FEA234EB94541EA034340F8043BE9D256F8242006EB840362B9043B9E421A4602D3C8F8104005E01268043B002A26
:40344000F8D1013CF3E7284600E0002003B0BDE8F08F0000000000002DE9F04F456A95B08246219CCDE9022345B9102000F090FDCAF82400456085600560C560DAF82430B3
:40348000196859B15A68012393404A608B60504600F0C9FDDAF8243000221A60039BA04A002BBDBF01232360039B0023BCBF23F000430393DDF80C80A8BF236028F0004381
:4034C0001B0D1B0593421DD142F20F73209A1360029B43B9934A944BC8F31300002814BF1846104600E09048229B002B00F04685C37813B100F1080300E0C31C229A1360C8
:4035000000F03CBDDDE90245002200232046294601F0E4FA074658B1209A01231360229B002B00F01E8581481860013800F026BD12AB019313AB009322462B46504600F03C
:40354000C5FFC8F30A56049056B1C5F3130343F07F51204641F44011A6F2FF3611971DE0139B129E1E4406F23243202B0ADD029A06F21240C3F1400322FA00F008FA03F362
:40358000184304E0C3F12000029B03FA00F0FEF7B5FE0123A1F1F871013E11930022644BFEF76EFD58A3D3E90023FEF71DFF58A3D3E90023FEF766FD044630460D46FEF76E
:4035C000ADFE55A3D3E90023FEF70EFF02460B4620462946FEF756FD04460D4601F0C6FA0022834600232046294601F081FA58B15846FEF793FE02460B462046294601F068
:403600006DFA08B90BF1FF3BBBF1160F0DD8DDE90223484901EBCB01D1E9000101F086FA30B10BF1FF3B002300E00123109300E01090129B9E1B731E079343BFC3F1000866
:40364000002307934FF00008BBF1000F06DB079BCDF82CB05B440793002705E00023CBEB0808CBF100070B931E9B092B28D8052BC4BF043B1E931E9BC8BF0025A3F102034A
:40368000D8BF0125032B20D8DFE803F0060E0204012302E0012308E000230A931F9B002B1DDD9946059321E000230A931F9B0BEB030909F10103012B0593B8BF012315E05C
:4036C000012500231E930A9501E001230A934FF0FF390022CDF8149012231F9206E04FF001094B46CDF81490CDF87C90DAF8244000226260042101F114029A421CD86268CC
:40370000490001326260F6E761436F63A787D23FB3C8608B288AC63FFB799F501344D33F0000F07F054F00000E4F0000E14D00000000F83F204F00006168504600F03EFC53
:40374000DAF8243020601B680693059B0E2B00F25B81002D00F05881DDE90234BBF1000FCDE90E3430DD9F4A0BF00F034FEA2B1502EBC303E80618CBCDE908340CD5DDE9A2
:403780000E01994B05F00F05D3E90823FEF756FF0324CDE9020100E00224934E6DB1E90708D5DDE90801D6E90023FEF71DFECDE9080101346D100836F0E7DDE90823DDE92C
:4037C0000201FEF73BFF20E0CBF1000505B3DDE90E01844B05F00F0203EBC203D3E90023FEF702FECDE902017F4E2D110023022455B1EA0705D5D6E90023FEF7F5FD013411
:4038000001236D100836F3E71BB1CDE9020100E00224109BE3B1DDE902560022734B2846314601F065F998B1059B8BB1B9F1000F40F3E6800BF1FF330893314600226C4B43
:403840002846FEF7D1FD0134CDE902014E4602E0059ECDF820B02046FEF760FDDDE90223FEF7C2FD634B0022FEF70CFCA1F1507304460C931D46D6B9DDE9020100225E4B93
:40388000FEF7FEFB22460C9BCDE9020101F04EF9002840F03F820C99224601F10043DDE9020101F025F9002840F02B82A8E00A9A4C4B711E002A49D003EBC103D3E90023BC
:4038C00000204E49FEF7BAFE22462B46FEF7D8FBCDE90C01069CDDE9020101F047F90546FEF71CFD02460B46DDE90201FEF7C8FBDDE90C23303504F8015BCDE9020101F095
:40390000F7F8002840F01D83DDE9022300203749FEF7B6FBDDE90C2301F0EAF8002840F0D180069BE31AB3426ADADDE90C0100222F4BFEF759FD0022CDE90C01DDE90201BF
:403940002B4BFEF751FDCDE90201C4E703EBC1012246D1E900012B46FEF746FD069BCDE90C011D469C19DDE9020101F0FFF80646FEF7D4FC02460B46DDE90201FEF780FB9E
:40398000303605F8016BAC42CDE902014FF0000222D11A4BDDE90C01FEF774FB02460B46DDE9020101F0C2F8002840F08B80DDE90C2300201149FEF763FB02460B46DDE930
:4039C000020101F095F8D8B114F8013C621E302B40F0B7821446F7E7054BFEF705FDCDE90201C0E7204F0000F84F00000000F03F0000244000001C40000014400000E03F39
:403A0000DDE90E34CDE90234139B002B7CDBBBF10E0F79DCAB4B03EBCB03D3E900671F9B002B14DA059B002B11DC40F06C810022A54B30463946FEF7D7FCDDE9022301F01C
:403A40006BF8059D2E46002840F05F8165E1069CDDE9028932463B4640464946FEF7EEFD01F084F80546FEF759FC32463B46FEF7BBFC0B46024649464046FEF701FB05F132
:403A8000300E069B04F801EBC3EB040E059B73452DD102460B46FEF7F5FA8046894602460B463046394601F023F878B942464B463046394601F012F8002800F04482EB0773
:403AC00004D440E2DDF820B000E01C4614F8012C631E392A07D1069A9A42F6D1069930220BF1010B0A701A7801321A702BE20022764BFEF779FC002200238046894600F0C7
:403B0000EDFF0028A6D01EE20A9A002A2BD01E9A012A0ADC119A12B103F2334302E0129BC3F136033D46444613E0059B5D1EAF42BFBF0B9BEA1B9B180B93059BB6BF2F4604
:403B40007D1B0025002BA7BF4446059BC3EB08040023079A01211A4450469844079200F001FB064602E03D4644460A9E5CB1079B002B08DDA342A8BF2346079AC3EB080822
:403B8000E41AD31A0793002F1DDD0A9BABB18DB131462A46504600F07FFB049A01460646504600F0E8FA04990890504600F03BFA089B04937A1B06D000E03A460499504670
:403BC00000F06AFB04900121504600F0CBFA0B9B05465BB31A460146504600F05DFB1E9B0546012B18DC029B83B9039BC3F3130373B9039B23F000473F0D3F054FB1079B2E
:403C000008F1010801330793012702E0002700E0029F0B9B73B100E000272B6905EB8303186900F052FAC0F1200004E01E9B012BD9DD0B9F0120079B184410F01F0008D05A
:403C4000C0F12003042B02DDC0F11C0002E006D018461C30079B8044034404440793B8F1000F05DD42460499504600F063FB0490079B002B05DD29461A46504600F05AFB14
:403C80000546109B23B32946049800F0A4FB00281EDA00230A220499504600F0DBF90A9B0BF1FF3B0490002B00F05F81314600230A22504600F0CEF9B9F1000F06463FDC9B
:403CC0003BE000BF204F00000000144000002440059B002B2BDC1E9B022B28DDDDF81490B9F1000F11D129464B460522504600F0B1F901460546049800F06DFB00280CDC05
:403D000003E0354600E000252E461F9B069C6FEA030B09E03546DDF820B0069B069A5C1C312313700BF1010B05960026F7E00A9BDDF8149023B9069CB2E01E9B022BCFDCF1
:403D4000002C05DD31462246504600F0F3FA06469FB17168504600F031F90446326906F10C01023292000C30FEF7A0FD01222146504600F0DFFA059000E00596029B069F06
:403D800003F00103079329460498FFF7D7FA3146044600F13008049800F01DFB059A02902946504600F033FBC36802463BB901460A90049800F00FFB0A9A034600E00123EF
:403DC000114650460A9300F02EF90A9B53B91E9A42B9079A32B9B8F1390F2AD0029B002B1CDC1DE0029A002A04DB1BD11E9ACAB9079ABAB9002B13DD01220499504600F049
:403E000099FA2946049000F0E6FA002803DC07D118F0010F04D0B8F1390F0AD004F131087C1C0CE0002B07F101040BDDB8F1390F03D139233B70013756E008F1010887F809
:403E400000806CE0069B2746E31A4B4504F8018C3BD000230A220499504600F0FBF8059B04909E424FF00A024FF000033146504604D100F0EFF80646059084E700F0EAF86A
:403E8000002306460A220599504600F0E3F8059079E700230A220499504600F0DBF8049029460498FFF74AFA069B00F1300804F8018BE31A4B45ECDB069B0596B9F1010FB9
:403EC000ACBF4B4401331F46002601220499504600F030FA2946049000F07DFA002803DC15D118F0010F12D03C4614F8013C621E392B09D1069B934204D10BF1010B312318
:403F0000069A02E01446F0E70133137007E03C4614F8013C621E302B01D11446F8E72946504600F080F8059B6BB12EB19E4203D03146504600F077F80599504600F073F8C9
:403F400001E0DDF820B00499504600F06CF80023209A23700BF101031360229B1BB11C6001E008480AE0069808E0B9F1000F3FF7E2AE1E9B022B7FF7DEAEB1E615B0BDE843
:403F8000F08F00BFE04D000000487047F081FF1F024B0146186800F041BB00BFE881FF1F10B5C9B202449042034605D01C7801308C42F8D1184610BD002010BD70B5456A04
:403FC00004460E463DB91020FFF7E2FF6062456085600560C560656AEB6843B1636ADB6853F8260078B1026843F8262017E021220421204600F0B8FA636AE860DB68002BBB
:40400000ECD1002070BD012101FA06F56A1D9200204600F0A9FA0028F3D04660856000230361C36070BD70B5446A06460D463CB91020FFF7ADFF7062446084600460C460E4
:404040003DB1736A6A68DB6853F82210296043F8225070BD2DE9F04106460C460D691F4601F1140E0023DEF80000013381B202FB0171000C0F0C02FB007089B201EB0041E1
:404080009D424FEA10474EF8041BECDCD7B1A3689D4212DB616830460131FFF78FFF8046226904F10C01023292000C30FEF7FEFB21463046FFF7B7FF444604EB850301350D
:4040C0005F6125612046BDE8F081030C1B0413B90004102300E0002310F07F4F04BF0002083310F0704F04BF0001043310F0404F04BF80000233002803DB420003D5581CA7
:4041000070471846704720207047036813F007020BD0D90722D49A074BBF5B089B08036003604CBF01200220704799B209B91B0C102213F0FF0F04BF1B0A0832190704BF9C
:404140001B090432990704BF9B080232D90702D45B0805D00132036010467047002070472020704710B50C460121FFF727FF01224461026110BD2DE9F74F14460A6923694A
:4041800088469A42BEBF0B46A0461C46D8F81070D4F81090D8F80830D8F8041007EB09069E42C8BF0131FFF709FF00F114052B4605EB860C0022634502D243F8042BFAE719
:4041C00004F1140208F1140102EB890301EB87070093009B0192934257D9B2F800B0BBF1000F23D08946AE464FF0000859F8044BBEF800A0A3B20BFB03A34FEA144ADEF877
:40420000004043444FEA14480BFB0A84F24604EB13449BB243EA04434F454FEA14484AF8043B01D9D646E1E7CEF80480019B0432B3F802A0BAF1000F21D02C4689462B68FF
:404240004FF00008B9F800E0B4F802B09BB20AFB0EBEA346F04443EA08434BF8043B59F8043BB4F804E01B0C0AFB03E34F4503EB18434FEA134801D95C46E3E763600435EE
:40428000A7E75CF8043D13B9013E002EF9DC066103B0BDE8F08F00002DE9F843154612F0030206460F4607D0214C013A002354F82220FFF7CFFE0746AD1036D0746A3CB965
:4042C0001020FFF765FE7062446084600460C460D6F82480D8F808404CB940F271213046FFF740FF04460023C8F8080003604FF00008EB070AD5394622463046FFF73BFF18
:40430000814639463046FFF78EFE4F466D100CD0206808B10446ECE7224621463046FFF72AFF2060C0F80080F4E73846BDE8F883E84F00002DE9F0470C46074691462669D5
:404340004FEA621A56444968A368751CAB4202DA01315B00FAE73846FFF730FE002380461A4600F11401534503DA41F823200133F9E72AEAEA73206901EB830319F01F09D7
:4043800004F1140101EB800E14D0C9F1200C002208689A4600FA09F0024343F8042B51F8042B8E4522FA0CF2F2D8CAF8042042B1B51C06E0043B51F8042B8E4543F8042FE4
:4043C000F9D8013D3846C8F810502146FFF72BFE4046BDE8F08703690A6910B59B1A11D192001430143183180A4453F8044D52F8041D8C4202D007D3012010BD9842F4D399
:40440000002010BD184610BD4FF0FF3010BD2DE9F8430C460746114620461546FFF7DBFF061E08D131463846FFF7C8FD012303614661BDE8F883BCBF23462C4638466168B8
:40444000BABF1D4601260026FFF7B8FD2B69C660266905F1140904F1140101EB860709EB830800F114054FF0000C51F8042B59F8044B93B29C44A3B2240CC3EB0C03C4EB87
:40448000124202EB23429BB24FEA224CC84543EA02428E4645F8042BE7D8BE450ED25EF8041B8AB26244131403EB114392B242EA03424FEA234C45F8042BEEE755F8043D16
:4044C0000BB9013EFAE70661BDE8F8832DE9F3411C4601219046089E099DFFF76FFDC4F31302C4F30A5407460CB142F480120192B8F1000F19D002A840F8088DFFF705FEA8
:40450000009B48B1019AC0F1200102FA01F10B43C2407B61019200E07B61019B002B14BF02210121BB61396107E001A8FFF7EDFD019B01217B613961203034B1A4F2334496
:4045400004443460C0F1350009E0A0F2324007EB810330601869FFF7B8FDC0EB41102860384602B0BDE8F08138B502FB01F4214600F054F8054618B122460021FEF7A1F9E2
:40458000284638BD38B50546002944D051F8043C0C1F002BB8BFE41800F017FA1E4A1368114613B96360146030E0A3420DD92268A018834201BF18685B681218226063603F
:4045C0000C6023E0A24203D813465A68002AF9D118681918A1420BD12168014458188242196013D110685268014419605A600DE002D90C232B6009E021686018824201BF15
:40460000106852680918216062605C602846BDE8384000F0DBB938BD6882FF1F70B5CD1C25F0030508350C2D38BF0C25002D064601DBA94202D90C23336046E000F0C5F9A2
:40464000234B1C681A462146A1B10B685B1B0ED40B2B03D90B60CC18CD501EE08C420BBF63684B681360636018BF0C4615E00C464968E9E7174C23681BB9304600F07AF910
:4046800020602946304600F075F9431C18D0C41C24F00304A0420DD12560304600F096F904F10B00231D20F00700C31A0ED05A42E25070BD211A304600F05CF90130EBD1CB
:4046C0000C233360304600F081F9002070BD00BF6882FF1F6482FF1F2DE9F0478E6882469E420C46914698463ED88A8912F4906F3AD02568096902236F1A656905EB450521
:4047000095FBF3F57B1C43449D4238BF1D4653050FD52946FFF782FF064698B13A462169FEF7C4F8A38923F4906343F08003A38113E02A4600F04BF9064670B921695046FC
:40474000FFF720FF0C23CAF80030A3894FF0FF3043F04003A381BDE8F08726613E44266046466561ED1BA560464528BF464649463246206800F00EF9A36800209B1BA3605D
:4047800023681E442660BDE8F08700002DE9F04F9DB003938B8980461C060D4616460DD50B695BB94021FFF739FF2860286118B90C23C8F80030CDE040236B6100230993F2
:4047C00020238DF82930DFF89CB130238DF82A3037463C4614F8013B1BB9B7EB060910D003E0252BF9D02746F3E74B46324629464046FFF771FF013000F0A780099B4B4474
:4048000009933B78002B00F0A08000234FF0FF3204930793059206938DF853301A930126052221784E48FFF7BBFB671C049B38B14B4A3C46801A06FA00F018430490EFE7AB
:40484000D90644BF20228DF853201A0744BF2B228DF8532022782A2A03D0079A00210A200BE0039A111D12680391002A10DA524243F00200079204900BE027463B780134F8
:40488000303B092B03D800FB02320121F5E701B107923B782E2B1ED17B782A2B0AD1039B02371A1D1B680392002BB8BF4FF0FF33059310E0002319460593781C0A240746FE
:4048C0003A780130303A092A03D804FB01210123F5E703B10591032239782248FFF760FB40B14023CBEB000003FA00F0049B013718430490397806221B487E1C8DF8281011
:40490000FFF74EFB88B1194B33B9039B073323F007030833039314E003AB00932A46144B04A94046FEF766F807E003AB00932A460F4B04A94046FEF717FBB0F1FF3F82468C
:4049400003D0099B5344099342E7AB895B0601D4099801E04FF0FF301DB0BDE8F08F00BF20500000265000002A500000F5290000D946000038B5064C00230546084623603F
:40498000FBF7F6FD431C02D1236803B12B6038BD2484FF1F884210B501EB020301D8421E0BE09842FBD28118D21AD34204D013F8014D01F8014DF8E710BD994204D011F89E
:4049C000014B02F8014FF8E710BD70477047F8B5074615460E4621B91146BDE8F840FFF71DBE1AB9FFF7CEFD2846F8BD00F015F885420ED929463846FFF710FE044650B1E1
:404A000031462A46FDF752FF31463846FFF7BAFD01E03046F8BD2046F8BD51F8040C0028BEBF091851F8043CC0180438704700004FF0FF3C06E000BF4FF0010C02E000BF02
:404A40004FF0010C4DF804CD4FEA410C7FEA6C5C4FEA430C18BF7FEA6C5C1BD001B050EA410C0CBF52EA430C91EA030F02BF90EA020F0020704710F1000F91EA030F58BFB0
:404A8000994208BF90422CBFD8176FEAE37040F0010070474FEA410C7FEA6C5C02D150EA013C07D14FEA430C7FEA6C5CD6D152EA033CD3D05DF8040B704700BF84461046C3
:404AC00062468C461946634600E000BF01B5FFF7B7FF002848BF10F1000F01BD4DF808EDFFF7F4FF0CBF012000205DF808FB00BF4DF808EDFFF7EAFF34BF012000205DF84E
:404B000008FB00BF4DF808EDFFF7E0FF94BF012000205DF808FB00BF4DF808EDFFF7CEFF94BF012000205DF808FB00BF4DF808EDFFF7C4FF34BF012000205DF808FB00BF13
:404B40004FEA410C7FEA6C5C02D150EA013C0AD14FEA430C7FEA6C5C02D152EA033C02D14FF0000070474FF0010070474FEA410212F5001215D211D56FF47873B3EB625290
:404B800012D94FEAC12343F0004343EA505311F0004F23FA02F018BF404270474FF00000704750EA013005D111F0004008BF6FF0004070474FF00000704700BF00000000EE
:404BC000252E326C660000000A0D00000920437573746F6D20696E70757420757365640A0D000000004F0040240040510040300000000140000280020140800D00140140CF
:404C0000000800400140000A004C0140000200500140200000020140F80E0048800000003031323334353637383941424344454600000000280000000001040001000000C0
:404C40000000000000014359555342000000303030303100000000000000000012034D005300460054003100300030000100000001000000784C000001000000BC4D00000C
:404C8000000000000000000001000000904C000001000000784D000003000000BC4C00000000000000000000000000000000000000000000B84C0000020A000000008103B2
:404CC000080002000100820240000A000100030240000A0002030000040309042C0343007900700072006500730073002000530065006D00690063006F006E006400750093
:404D0000630074006F007200100355005300420055004100520054003803430044004300200043006F006D006D0075006E00690063006100740069006F006E00200049009E
:404D40006E007400650072006600610063006500260343004400430020004400610074006100200049006E007400650072006600610063006500000009024300020101C09B
:404D800032090400000102020103052400100104240202052406000105240100010705810308000A09040100020A00000407058202400000070503024000000012010002F4
:404DC00002000008B40432F20100010280014300494E4600696E66004E414E006E616E003000303132333435363738394142434445460030313233343536373839616263CC
:404E0000646566000020202020202020202028282828282020202020202020202020202020202020208810101010101010101010101010101004040404040404040404106B
:404E40001010101010104141414141410101010101010101010101010101010101010101101010101010424242424242020202020202020202020202020202020202020224
:404E80001010101020000000000000000000000000000000000000000000000000000000000000000000000000000000000000000000000000000000000000000000000092
:404EC00000000000000000000000000000000000000000000000000000000000000000000000000000000000000000000000000000000000000000000000000000000000B2
:404F00000000000000496E66696E697479004E614E00504F534958002E00000000000000000000000000F03F000000000000244000000000000059400000000000408F402E
:404F4000000000000088C34000000000006AF8400000000080842E4100000000D01263410000000084D797410000000065CDCD41000000205FA00242000000E87648374216
:404F8000000000A2941A6D42000040E59C30A2420000901EC4BCD64200003426F56B0C430080E03779C3414300A0D8855734764300C84E676DC1AB43003D9160E458E1430F
:404FC000408CB5781DAF154450EFE2D6E41A4B4492D54D06CFF08044F64AE1C7022DB544B49DD9794378EA4405000000190000007D000000000000000080E03779C3414344
:40500000176E05B5B5B89346F5F93FE9034F384D321D30F94877825A3CBF737FDD4F1575232D302B2000686C4C0065666745464700000000F8B500BFF8BC08BC9E467047DA
:405040004D000000ED050000F8B500BFF8BC08BC9E4670472900000068500000C880FF1F600100000002000000000000435333303120323031360A000000000000000000AB
:4050800000000000000000000000000000000000000000000000000000000000000000000000000000000000000000000D0A546865207370656564206973202872707329C5
:4050C0003A200000000000000000000000000000000000000000000000000000000000000000000000000000000000000A0000002884FF1F7F800000030000000000E02E72
:40510000C05D00001800000000366E0100C2010000000800C201000000080000A120000000000200000000000000000000000000000000000000000000000000000000003C
:405140000000000000000000CE4D00000000000000000000000000000000000000000000000000000000000000000000000000000000000000000000000000000000000014
:4051800000000000000000008881FF1F044E0000184F0000255000002550000025500000255000002550000025500000255000002550000025500000FFFFFFFFFFFFFFFFFA
:4051C000FFFFFFFFFFFF00000000000000000000000000000000000000000000000000000000000000000000000000000000000000000000000000000000000000000000B5
:40520000000000000000000000000000000000000000000000000000000000000000000000000000000000000000000000000000000000000000000000000000000000006E
:40524000000000000000000000000000000000000000000000000000000000000000000000000000000000000000000000000000000000000000000000000000000000002E
:4052800000000000000000000000000000000000000000000000000000000000000000000000000000000000000000000000000000000000000000000000000000000000EE
:4052C00000000000000000000000000000000000000000000000000000000000000000000000000000000000000000000000000000000000000000000000000000000000AE
:020000040003F7
:0200000480007A
:4000000001450040064F004009520040015B0040056400400365004042000140350101400802014054030140470401404C05014045060140560701403408014049090140E8
:40004000500A0140440B0140460C01404E0D0140650E0140390F0140371401404715014035160140511701403C1801404B190140371A0140541B01400F4001401E410140DF
:400080001342014013430140064501400846014007470140114801401B490140094C0140064D01400C500140035101407E0201200A1B0D20161B1940222700880465108087
:4000C000185419186406782479107C402F848172880F8C6F8E0F8F388707880F8B6F001001020220030404280611070109020B140C0C0E02100C1201140B150416041702EA
:4001000019021B0C1C101E6024072A0F2C102E20300F3108330634303510364037013A203B08580459045B045F01840188018E1092089610970399019A029E04A002A40123
:40014000A801AE08B008B210B406B502B601B701BE45D602D713D804D90FDB04DC19DD30DF01004003A0042005040701080209800A200E880F221012120814801605170AD4
:4001800018401A081BA01D091E092020218122282610270232283614392A5E0169806A406C016E046F047420758077207E4081018410880289048B02C0EDC2FDC4F7CC66F6
:4001C000CE07D680DE80E004E228E6028302A301B302B501D804D904DC01DF0102020404052007020A280E1A0F40114012981580166017101C201D901E101F402114245067
:400200002510270929022C242E402F40340135843720382039103A023D093F514404459847014D1056015710604061016E206F02820683018610880189088B028D10900208
:4002400091809240943095289680988099809A809B249D049E059F09A020A640A711AA10AC10AE84B002B108B204B450C0E1C2F6C4FFCAF1CCF0CEF1D0F0D220E208E6828D
:40028000E808EE0452035302580459045B045C115D105F018103820C8304843088CF89D08A308C208F019004930C950396439708981099D09C049E089F02A03CA120A2C132
:4002C000A340A43CA6C2A703A8FFA980AB10AC08AD01AF02B080B130B23FB470B5C0B70FB802B922BA28BB88BF10C002C740C9FFCA07CBFFCC40CD20CEF0CF05D008D80436
:40030000D904DA04DC33DD03DF01E040E1A8E240E3200140058107280A280B040C200D480F40129A1422150117101D041E801F10242025142601271228012C802D202E48DC
:40034000321835103746388039423A103B043C203F6140044208451054805642602061046684672169206A8079027A8090029181924093409424954096A8988299819A80C9
:400380009B6C9D249E749F02A030A50CA6CFA701A802A902AB50AF50C0F1C2F6C4FFCAF8CCF6CEBFD020E208E8100110022003E004DC050806220702081009100AAC0B6040
:4003C0000D040E030F0113C01414150F19031B0C1C091D0F1ED0200C22712330278029C02B302C102D052E402F0A301F33F034E0350F38083A203B083E044064410245E023
:4004000046C0470B481A49FF4AFF4BFF4EF04F44500C580459045A045C335D035F0166C06A406B028601A202B002B201D804D904DC11DF01000802020440064407100A285E
:400440000B020C080E021219130115011602188019021A201C601D301E08240426102710280129022B082C802D282E40321435803611370439023A113D013E083F604520EC
:4004800046404E804F205408562059205B10620463206580668081088202860888018A028D028F019002912092C0934094849502962898809AC29B049C019D309E30A08000
:4004C000A201A310A508A60EA701B304C0F5C2A7C49FCAFDCCF6CEF5D0A0D220E004E20101010210080B09010A040D040F0212401308160F180819101A011C0C1E021F1022
:40050000200C21022201230424072502270429102D022E202F04301031013220331034403508360F370639023B803F04540F580459045B045F018E019201A801B401BE1020
:40054000D804D904DC11DF010108020403010510068008880A080B480C200D0A0E0110101120120115021602170C19201C201D021E011F1A241225502740288829082F5AE2
:4005800030103204362037413A853B803D803E203F02410142405C105D825F088112831088088D8C91409208930496419A2E9C989D289E019F04A260A301A408A548A7A872
:4005C000B204B301C057C2FFC4B7CAF7CCB6CEB3D6F0E040E201E420EC20050509031B081D20211025062906311033203507370839203F054065410249FF4AFF4BFF4DA044
:400600004F015018580459045A045C015F016040628064406540668068406A806C406D206E80830885048901930495019B06A908AD01B101B304B502B708B902BF45C06437
:40064000C102C54CC630C72EC83BC9FFCAFFCBFFCDAFCE07CF01D018D280D804D904DA04DB04DC01DF01E040E280E440E540E680E840EA80EC40ED20EE800108020105084C
:400680000604070108880A0C0C10101812041488160120282151240425022649282029102B802F0A30203340350236103704380839203C043D013E224120452249204A012A
:4006C0004D214F04562857037502841085019008914095A09641982099109B409F04A020A120A230A404A548A608A720B740C0E5C247C4D6CA37CCECCEE6D0A4D22CE4021B
:40070000E810010D033004FE051C060108A30A5C0C0E0EF00FC01180153D1601187F19291B1420962268230224C52531263A270C2D142F293140333C350336FF37803E400A
:400740003F40540F580459045B045F05833084FD8507860288738F0490CF911092309430950796C99B079C9E9E60A101A302A60FA708A904AC94AD01AE60AF02B120B2FF63
:40078000B50FB710BE04BF40D804D904DF01000403240408051006020710084409080A410B400D100E2010011180122014201501168019081F8020012120222126562710DF
:4007C000284529082E802F903120320133043420360638043A013B403C883D083E025C095E805F10660867047D088D409101933495A0982899109A0BA060A404A60EA902E8
:40080000AA04AD01B292B314B420B702C0E6C26DC435CADFCCE7CEDBD6F0D860DE40E040E208E602E8D0EA20EC2004010D011106150417021B01240327062C0332023301B2
:4008400035043601370238883E403F544061410349FF4AFF4BFF4DA04F015018540F580459045A045B045F016040628064406540668068406A806C406D206E80813083C9F9
:400880008573860788C08A248B0F940195FD96F2970298B7999E9A409B60A084A210A4C1A5CFA612A730A877A994AB60AE08B1FFB20FB4F0BF01C065C103C50CC634C72EA7
:4008C000C83DC9FFCAFFCBFFCDAFCE07CF01D018D418D604D804D904DA04DB04DD30DF01E040E280E440E540E680E840EA80EC40ED20EE8000080514080809080E28102252
:4009000014241521174019081A031D141E101F3021082250274029082F243020320233043420360439803C083D013E104211430447044A084E094F04546256095702580403
:4009400059025AA05F0266A067808220840487408B12C064C260C4F5CA62CC67CEE8D04AD234D68FD8B0000208040B040C011A101E021F01220426082A012B022C0831047C
:400980003301341F350238203E105608580459045B045C115D905F0180038403850789048A038B038D068E038F01900391069301940295079601A107A403A707B001B102C9
:4009C000B402B501B704D401D804D904DB0FDC11DD10DF010102020803220404052206010A240B510F50100411251293150819201A081B201D101E8020042104220A278ABA
:400A0000280429022B202D022F20329A360A38043A103B403C043F505A405C8063027E408210830A86408BC08C048D108F02910592E493419404960898809902A110A60A09
:400A4000A721B618C0FFC23FC42FCAC7CCCFCE7ED618D808DE80E240E40CE6A0E880EA04EC2000040503080409030C020F0311021301140118012004210327032903300127
:400A8000320434023502370138023E11580459045C135F018202830186018A048E08904092809410962098019C02A004A408A820AA10AC80AE40B101B4FFBE10D602D73D19
:400AC000D804D904DB0FDC10DD10DF0100040142021A030804420704080109300A200B510C100D100E10100A1105120116801A041D091F1021012340254027082801290203
:400B00002B202D022F2832183602380439403A013C043F5058106101680E69057120730178027C027E4082C085408A208B108F089042912092A09502960897019880990222
:400B40009AA09B049E10A280A404A508A60AA709AD21B010C0DFC26FC41FCAEBCC86CE7BD604D801DE01E220E404E640EE880006010402180501080E09100D041001140AD4
:400B800016141704181E1B101E011F1020182206230224142504260A2A202B082D04310232203310341E35013601370C3E403F1454015604580459045B045D305F0184FEAC
:400BC0008601887F8E0190A3925C949696689CC59E3AAC0EAEF0B4FFBE10D280D804D904DB04DC10DF01032504020704080409080A410C800D2A0F0210021180150A171069
:400C000019201C081D301E221F20240425062701288829082C822D202F2030183404362037403A013B083C203D043E413F085C065D405F1065017340830489108B119002E2
:400C400091429201930C964097C099089A289B509C989D109E019F05A018A140A260A301A50CA7A0B020B140C057C2FDC471CAF7CC76CEF3D6F0D880E480EE080701150173
:400C80001B01210125012B012D013501580459045C115F018106824085058620880789088B308C209108920F9310951096109708980B99089A049B10A00CA202A40CA503BE
:400CC000A601A808AA01AB40AD06B00FB120B210B318B420B507B640B740B920BB08BE10D40FD804D904DB04DF0501A80204050206200705080809200B080C020E200F086A
:400D0000100812011508168017101C241E401F4023082508262A2715280829882A012EE430083120361A3A043C283E013F08441045045A045B045C045D105E8266086704CE
:400D40007E2080088502888089208B088D8491189201930C9640978099089A299C989F04A00EA251A508A901AC02AD04B104B201B380B601C0F7C276C473CA7FCCE6CEE2F4
:400D8000D6F0D860DE40E020E440E680E880EC60EE1013081680322033043402361039013B803E8087408A21C430CCF0CE70E2100120032008200D040FE0312032013720D9
:400DC000528056205E0183208402850186808A01920295019B089C029F04A610C050C260CC70D460D680E210E420E65003101320862093409B089E209F24A520A610A70817
:400E0000A820AB50AD24B708C010C440E210E830ECE019081F086310671073108314874093409B189F04A520A610A708C630D8C0DC80E020E280E44022025F02848087408F
:400E4000C802D6015708870897809C80A202B702D402E80808880C08800897809C80A202C20E208052085680830886808B408E0899089B08A520AE10B310C840D460E02032
:400E8000E240EE101440538056205A405B015C02641073408002824084508A208B018F809340A920B040B108C420D4E0D6C0D880DC80E220E410E6C0EA201F4034017B01C0
:400EC0009780A202AC08C601CC01DC01B001B301B602E801EC04EE08000B0101080B09010A0A0C030E09100B11011A0A1B011C0B00AB01FF100A000000070048004FC0000B
:400F00000A001420000020100000404913460C0913060400000408000009150003021400004980064010802000300F081007E0460000082000005000230604000100C0E063
:400F400028FFFFFF62A0F0410C0000000000000004040404330300010000000000004002001030100010101200000000000000000000000000000000658A8A008A000000FF
:400F8000080006080800080000000000400000303000300CCC000000000B0B000000000000F4F400800000000000000000DDDD00000100000000000000000000000000002A
:400FC00000000000000000000000000000000000000000000000000000000000000000000000000000000000000000000000000000000000000000000000000000000000F1
:4010000000000000000000000000000000000000000000000000000000000000000000000000000000000000000000000000000000000000000000000000000000000000B0
:401040000000000000000000000000000000000000000000000000000000000000000000000000000000000000000000000000000000000000000000000000000000000070
:401080000000000000000000000000000000000000000000000000000000000000000000000000000000000000000000000000000000000000000000000000000000000030
:0200000490006A
:0400000000004005B7
:0200000490105A
:04000000BC90ACAF55
:0200000490303A
:020000000E06EA
:0200000490402A
:4000000000000000000000000000000000000000000000000000000000000000000000000000000000000000000000000000000000000000000000000000000000000000C0
:400040000000000000000000000000000000000000000000000000000000000000000000000000000000000000000000000000000000000000000000000000000000000080
:400080000000000000000000000000000000000000000000000000000000000000000000000000000000000000000000000000000000000000000000000000000000000040
:4000C0000000000000000000000000000000000000000000000000000000000000000000000000000000000000000000000000000000000000000000000000000000000000
:0200000490501A
:0C00000000012E16106900012E391E6F41
:00000001FF