:400000000080002011000000690800006908000008B5044B1A6803F53F5302331A6000F043FC00BFFA46004010B5054C237833B9044B13B10448AFF300800123237010BD56
:400040009081FF1F00000000B4340000084B10B51BB108490848AFF300800848036803B910BD074B002BFBD0BDE81040184700BF000000009481FF1FB4340000C880FF1FA2
:4000800000000000084B1A78D2B25A705A6801325A605A6842F210739A4204D1024B01229A6000225A607047B081FF1F08B500F079FE0B4B186000F07DFE0A4B186000F0CE
:4000C00089FE094B186000F08BFE084B186000F079FE074B186000F05DFE064B186008BDFC81FF1F0482FF1F0082FF1F1082FF1F0C82FF1FF881FF1F38B5044600F0B6FDB3
:40010000F4B9374DD5E90001364CD4E9042301F011F802460B46012000F0C0F9D5E90201D4E9062301F006F802460B46012000F00DFA002000F05AFE002000F00FFC38BD4D
:40014000012C10D10022284B002000F0A7F90022264B012000F0FAF9002000F047FE002000F0FCFB38BD022C10D100221E4B012000F094F900221D4B002000F0E7F9002072
:4001800000F034FE002000F0E9FB38BD062C12D10024002522462B46012000F07FF922462B46012000F0D2F9012000F01FFE012000F0D4FB38BD042C11D1002400252246F9
:4001C0002B46012000F06AF922462B46012000F0BDF9012000F00AFE012000F0BFFB38BDD080FF1FB081FF1F0080414000003E402B4B1B687BB92B4B5B78DBB2022B04D061
:40020000284B5B78DBB2012B05D1264B00221A7001221A627047244B1B687BB9234B1B6863B11F4B1B684BB1214B1B6833B1214B1B681BB101221B4B1A7070471D4B1B681F
:400240007BB91A4B1B6863B1154B1B684BB1184B1B6833B1144B1B681BB10222114B1A707047154B1B683BB90D4B1B6823B90D4B00221A701A6270470C4B1B6823B9094B67
:400280005B78DBB2012B07D0094B1B683BB9054B5B78DBB2022B02D10022024B1A7070471082FF1FB081FF1F0C82FF1F0082FF1FF881FF1FFC81FF1F0482FF1F000000008F
:4002C0002DE9F843204B18680028B8BF404201F07DF804460D461D4B18680028B8BF404201F074F802460B462046294601F0FEF906460F460022164B01F05EFB08B1002695
:40030000134F144C00224FF08043D4E9020100F011FF80468946D4E902233046394601F0BBF807A3D3E9002301F0B6F802460B464046494600F0FEFEC4E90001BDE8F88377
:400340009A9999999999C93F0882FF1FF481FF1F0000F03FD080FF1F08B562B600F088F8002000F011FD00F0D9FC384800F0FEFC00F0A0FD364800F0C5FD364B1B689BB167
:40038000354B1B6883B1002200233449D1E9040101F0EAFA40B1002200233049D1E9060101F0E2FA00282FD12A4B1B6813B12A4B1B684BB1294B00202949C3E904010020C4
:4003C0002849C3E906011FE0234B1B6813B1214B1B684BB1214B00202249C3E9040100201F49C3E906010FE01A4B1B6813B11A4B1B6813B9194B1B6A33B1184B0020002197
:40040000C3E90401C3E90601FFF7F2FE134C6078FFF772FEA368002BAFD000F0ABFA124B186000F0EFFA114B1860002000F0AAFA002000F0EFFA637813F0FF0F01D1FFF7A8
:400440003FFF0022054B9A6097E700BF85000000AD0000000082FF1FF881FF1FB081FF1F000014C000001440F481FF1F0882FF1F08B500F06FFB00F0E3FB012000F0B6FCD2
:40048000012000F0B3FC00F0ABFA00F0F1FA002000F078FA002000F0BDFA08BDF8B5064614461D460022264B2046294601F084FA38B9002200232046294601F05FFA28B143
:4004C00002E000241E4D01E00024002566B100221C4B2046294600F0DFFF00221A4B00F029FE06460F460DE00022164B2046294600F0D2FF02460B460020134900F018FEBE
:4005000006460F4600F034FB00F050FF04460D4632463B4600200A4900F00AFE02460B462046294600F0B8FF0022054B01F0DEF801F04CFA80B200F0C7FA00F01FFBF8BD94
:40054000000059400000E03F0000494070B5064614461D460022224B2046294601F02CFA38B9002200232046294601F007FA28B102E000241A4D01E00024002566B10022EB
:40058000184B2046294600F087FF0022164B00F0D1FD04460D460DE00022124B2046294600F07AFF02460B4600200F4900F0C0FD04460D4600F052FB00F0F8FE02460B46EE
:4005C0002046294600F068FF0022054B01F08EF801F0FCF980B200F0EDFA00F045FB70BD000059400000E03F00004940FEE700BFF0B40022174611E050F82760F3B226F017
:40060000FF0608E001EB420511F812406D78A5550132013BDBB2002BF4D10137232FEBD9F0BC7047064B1B78DBB203F00701054A11701B09013213704422034B1A707047B8
:40064000CF0100496E5800407658004008B50A46002101F012FA08BD38B501222B4B1A8018232B4A137017210232118002321370332102321180023213700024254B1C8056
:400680001B2202331A70062203F272231A705222A3F580731A70204B1B78DBB21F4A13704FF4E1621E4B1A8041F25122023B1A8019250CE01B4B1B7803F0010343EA44046D
:4006C00004F003044FF4F07000F01EFD013D0DB1032CEFD115B90320FFF788FF124A4FF48073138007231370002310490B7048200231087013700532137002220C4B1A70DA
:400700000C4A137843F00F03137038BD80400040824000408C4000400F010049A14600402242004025420040044000400640004001400040A243004008B501F093F908BD93
:4007400038B572B6324A137843F00403137000240CE0304D630019194A0011462A44084691882858FFF772FF0134E4B2062CF0D929494FF09040FFF73BFF284A284B1A604B
:40078000284A137843F0020313701032137843F002031370244C237843F040032370A2F58632513A137843F0100313700A221F491F48FFF7C1FF0A221E491F48FFF7BCFF5B
:4007C0000A221E491E48FFF7B7FF08221D491E48FFF7B2FF08221D491D48FFF7ADFF0A221C491D48FFF7A8FF1C4A137843F0080313701B4D61232B70FFF72EFF81232B70F2
:40080000FFF710FF0E2221461648FFF795FF38BDE8460040B834000090000048040404445806014003500140A04300403C0A004800510040480A0048C0510040540A0048B7
:40084000F0510040600A004812510040680A004822510040700A0048305100402243004000480040B043004008B501F0CFF803680C2B00D1FEE7FEE708B5094B1A681044B9
:40088000084BC31AB3F5007F02DC054B186005E001F0BCF80C2303604FF0FF32104608BDEC80FF1F1882FF1F08B5104E104D16E029686B68AC68002204E051F8040B43F8D3
:4008C000040B0432A242F8D1E868002203E0002143F8041B04328242F9D11035013E002EE6D101F099F8FFF737FDFEE7010000003436000008B5104A104B1A60104A13684C
:4009000043F40073136000230AE0032B03D80D4A52F8231000E00C490C4A42F8231001332F2BF2D90A4B1A780A4B1A70074A0A4B1A60FFF705FF08BD0004FA050CED00E0DE
:4009400014ED00E000000000690800000080FF1FBC760040C080FF1F08ED00E0044A137803F0EF03000100F01000184310707047C051004008B500F0EDFAA0F5004000B225
:4009800008BD00BF08B5002803DB80B280F4004002E0A0F5004080B200F0D6FA08BD00BF024B187800F00F00704700BF67650040014B1870704700BF8765004008B50F201D
:4009C000FFF7F6FFFFF7ECFF00F0A6FB034A137843F01003137000F0A3FB08BD9765004008B500F009FB4FF4004000F0ADFA044B1B7813B90122024B1A70FFF7DFFF08BD5E
:400A0000E481FF1F08B500F01FFBA0F5004000B208BD00BF08B5002803DB80B280F4004002E0A0F5004080B200F008FB08BD00BF024B187800F00F00704700BF6B640040F7
:400A4000014B1870704700BF8B64004008B50F20FFF7F6FFFFF7ECFF00F05EFB034A137843F01003137000F05BFB08BD9B64004008B500F03BFB4FF4004000F0DFFA044B93
:400A80001B7813B90122024B1A70FFF7DFFF08BDE581FF1F084A137843F0010313701032137843F00103137002F64D32137843F001031370704700BFA3430040014B188066
:400AC000704700BF044F0040014B1880704700BF064F0040014B1870704700BF034F004008B5194A137843F0020313700232137803F08F0343F040031370144B1A7802F09C
:400B0000CF021A701A7842F030021A701A7802F0F0021A701A7842F00F021A70FF20FFF7CDFF7D20FFF7D0FF0020FFF7D3FF084A137843F00103137002F65E32137843F073
:400B40000103137008BD00BF004F00400B4F0040A343004008B5054B1B7823B9FFF7C0FF0122024B1A70FFF795FF08BDE681FF1F014B188880B27047044F0040704700BF3E
:400B8000084A137843F0020313701032137843F00203137002F65932137843F001031370704700BFA3430040014B1880704700BF104F0040014B1880704700BF124F0040BD
:400BC000014B1870704700BF0F4F004008B5194A137843F0020313700232137803F08F0343F040031370144B1A7802F0CF021A701A7842F030021A701A7802F0F0021A70AC
:400C00001A7842F00F021A70FF20FFF7CDFF7D20FFF7D0FF0020FFF7D3FF084A137843F00203137002F66A32137843F00103137008BD00BF0C4F0040174F0040A3430040CE
:400C400008B5054B1B7823B9FFF7C0FF0122024B1A70FFF795FF08BDE781FF1F014B188880B27047104F0040704700BF084A137843F0040313701032137843F00403137066
:400C800002F66532137843F001031370704700BFA3430040014B1870704700BF1B4F0040014B1880704700BF1C4F0040014B1880704700BF1E4F004008B5154A137803F02A
:400CC000010313700232137803F0FC031370114B1A7802F0CF021A701A7842F030021A701A7802F0F0021A701A7842F00F021A70094A137843F0010313703120FFF7D0FF71
:400D00003120FFF7D3FF0020FFF7C4FF08BD00BF184F0040234F0040194F004008B5054B1B7823B9FFF7C8FF0122024B1A70FFF79DFF08BDE881FF1F014B1B6898657047A8
:400D400008ED00E04001C0B2014B1870704700BF06E400E04022014B1A60704700E100E04022014B1A60704780E100E010B50446FFF7F6FF2046FFF7DFFF0720FFF7E2FFE5
:400D8000FFF7E8FF10BD00BF014B1870704700BF76640040024B1878C0F34010704700BF11510040024B1878C0F34010704700BF01510040024B1878C0F38010704700BFF0
:400DC00001510040024B1878C0F38010704700BF11510040014B1878C009704701510040014B1878C009704711510040044A137803F0F703C00000F008001843107070472D
:400E000030510040084A137843F0080313701032137843F00803137002F67132137843F001031370704700BFA3430040014B1870704700BF274F0040014B1880704700BFEF
:400E4000284F0040014B1880704700BF2A4F004008B5154A137803F0010313700232137803F0FC031370114B1A7802F0CF021A701A7842F030021A701A7802F0F0021A7098
:400E80001A7842F00F021A70094A137843F0010313703120FFF7D0FF3120FFF7D3FF0020FFF7C4FF08BD00BF244F00402F4F0040254F004008B5054B1B7823B9FFF7C8FF51
:400EC0000122024B1A70FFF79DFF08BDE981FF1F014B1B685865704708ED00E04001C0B2014B1870704700BF05E400E02022014B1A60704700E100E02022014B1A607047FC
:400F000080E100E010B50446FFF7F6FF2046FFF7DFFF0720FFF7E2FFFFF7E8FF10BD00BF024A137843F080031370704775650040014B1870704700BF86640040014B1878A4
:400F4000704700BF66640040014B1880704700BF08680040024B1B78024B188880B270470464004088680040014B188880B2704788680040014B1880704700BF486800400A
:400F8000014B1880704700BF6868004008B501E0FFF7EAFFFFF7D2FF10F0400FF8D108BD08B5134B1A7802F0F8021A701A7802F0FC021A70FFF7EAFF4FF40040FFF7DAFF46
:400FC0004FF40040FFF7C0FF0020FFF7B1FFFFF7B5FF4FF40040FFF7D3FF00F09DF8054A137843F01003137000F09AF808BD00BF756500409664004008B5054B1B7823B900
:40100000FFF7CEFF0122024B1A70FFF789FF08BDEA81FF1F024A137843F08003137070477B640040014B1870704700BF84650040014B1878704700BF64650040014B18808F
:40104000704700BF0C680040024B1B78024B188880B27047066400408C680040014B188880B270478C680040014B1880704700BF4C680040014B1880704700BF6C680040ED
:4010800008B501E0FFF7EAFFFFF7D2FF10F0400FF8D108BD08B5134B1A7802F0F8021A701A7802F0FC021A70FFF7EAFF4FF40040FFF7DAFF4FF40040FFF7C0FF0020FFF761
:4010C000B1FFFFF7B5FF4FF40040FFF7D3FF00F023F8054A137843F01003137000F020F808BD00BF7B6400409465004008B5054B1B7823B9FFF7CEFF0122024B1A70FFF78A
:4011000089FF08BDEB81FF1F0230800803D000BF01380046FCD17047EFF3108072B6704780F31088704700BF81F0004102E000BF83F0004330B54FEA41044FEA430594EA4C
:40114000050F08BF90EA020F1FBF54EA000C55EA020C7FEA645C7FEA655C00F0E2804FEA5454D4EB5555B8BF6D420CDD2C4480EA020281EA030382EA000083EA010180EA02
:40118000020281EA0303362D88BF30BD11F0004F4FEA01314FF4801C4CEA113102D0404261EB410113F0004F4FEA03334CEA133302D0524263EB430394EA050F00F0A7804F
:4011C000A4F10104D5F1200E0DDB02FA0EFC22FA05F2801841F1000103FA0EF2801843FA05F359410EE0A5F120050EF1200E012A03FA0EFC28BF4CF0020C43FA05F3C018EB
:4012000051EBE37101F0004507D54FF0000EDCF1000C7EEB00006EEB0101B1F5801F1BD3B1F5001F0CD349085FEA30004FEA3C0C04F101044FEA445212F5800F80F09A8017
:40124000BCF1004F08BF5FEA500C50F1000041EB045141EA050130BD5FEA4C0C404141EB010111F4801FA4F10104E9D191F0000F04BF01460020B1FA81F308BF2033A3F157
:401280000B03B3F120020CDA0C3208DD02F1140CC2F10C0201FA0CF021FA02F10CE002F11402D8BFC2F1200C01FA02F120FA0CFCDCBF41EA0C019040E41AA2BF01EB0451BA
:4012C000294330BD6FEA04041F3C1CDA0C340EDC04F11404C4F1200220FA04F001FA02F340EA030021FA04F345EA030130BDC4F10C04C4F1200220FA02F001FA04F340EAB4
:401300000300294630BD21FA04F0294630BD94F0000F83F4801306BF81F480110134013D4EE77FEA645C18BF7FEA655C29D094EA050F08BF90EA020F05D054EA000C04BFEA
:401340001946104630BD91EA030F1EBF0021002030BD5FEA545C05D14000494128BF41F0004130BD14F580043CBF01F5801130BD01F0004545F0FE4141F470014FF00000C9
:4013800030BD7FEA645C1ABF194610467FEA655C1CBF0B46024650EA013406BF52EA033591EA030F41F4002130BD00BF90F0000F04BF0021704730B54FF4806404F1320453
:4013C0004FF000054FF0000150E700BF90F0000F04BF0021704730B54FF4806404F1320410F0004548BF40424FF000013EE700BF42004FEAE2014FEA31014FEA02701FBFCE
:4014000012F07F4393F07F4F81F06051704792F0000F14BF93F07F4F704730B54FF4607401F0004521F0004120E700BF50EA010208BF704730B54FF000050AE050EA0102FD
:4014400008BF704730B511F0004502D5404261EB41014FF4806404F132045FEA915C3FF4DCAE4FF003025FEADC0C18BF03325FEADC0C18BF033202EBDC02C2F1200300FA3E
:4014800003FC20FA02F001FA03FE40EA0E0021FA02F11444C1E600BF70B54FF0FF0C4CF4E06C1CEA11541DBF1CEA135594EA0C0F95EA0C0F00F0DEF82C4481EA030621EA89
:4014C0004C5123EA4C5350EA013518BF52EA033541F4801143F4801338D0A0FB02CE4FF00005E1FB02E506F00042E0FB03E54FF00006E1FB03569CF0000F18BF4EF0010EAA
:40150000A4F1FF04B6F5007F64F5407404D25FEA4E0E6D4146EB060642EAC62141EA55514FEAC52040EA5E504FEACE2EB4F1FD0C88BFBCF5E06F1ED8BEF1004F08BF5FEA6E
:40154000500E50F1000041EB045170BD06F0004646EA010140EA020081EA0301B4EB5C04C2BFD4EB0C0541EA045170BD41F480114FF0000E013C00F3AB8014F1360FDEBFC3
:40158000002001F0004170BDC4F10004203C35DA0C341BDC04F11404C4F1200500FA05F320FA04F001FA05F240EA020001F0004221F0004110EBD37021FA04F642EB060140
:4015C0005EEA430E08BF20EAD37070BDC4F10C04C4F1200500FA04F320FA05F001FA04F240EA020001F0004110EBD37041F100015EEA430E08BF20EAD37070BDC4F12005FE
:4016000000FA05F24EEA020E20FA04F301FA05F243EA020321FA04F001F0004121FA04F220EA020000EBD3705EEA430E08BF20EAD37070BD94F0000F0FD101F000464000EC
:4016400041EB010111F4801F08BF013CF7D041EA060195F0000F18BF704703F00046520043EB030313F4801F08BF013DF7D043EA0603704794EA0C0F0CEA135518BF95EA0E
:401680000C0F0CD050EA410618BF52EA4306D1D181EA030101F000414FF0000070BD50EA410606BF1046194652EA430619D094EA0C0F02D150EA013613D195EA0C0F05D10D
:4016C00052EA03361CBF104619460AD181EA030101F0004141F0FE4141F470014FF0000070BD41F0FE4141F4780170BD70B54FF0FF0C4CF4E06C1CEA11541DBF1CEA1355EC
:4017000094EA0C0F95EA0C0F00F0A7F8A4EB050481EA030E52EA03354FEA013100F088804FEA03334FF0805545EA131343EA12634FEA022245EA111545EA10654FEA0026CD
:401740000EF000419D4208BF964244F1FD0404F5407402D25B084FEA3202B61A65EB03055B084FEA32024FF480104FF4002CB6EB020E75EB030E22BFB61A754640EA0C0027
:401780005B084FEA3202B6EB020E75EB030E22BFB61A754640EA5C005B084FEA3202B6EB020E75EB030E22BFB61A754640EA9C005B084FEA3202B6EB020E75EB030E22BF4E
:4017C000B61A754640EADC0055EA060E18D04FEA051545EA16754FEA06164FEAC30343EA52734FEAC2025FEA1C1CC0D111F4801F0BD141EA00014FF000004FF0004CB6E7A8
:4018000011F4801F04BF01430020B4F1FD0C88BFBCF5E06F3FF6AFAEB5EB030C04BFB6EB020C5FEA500C50F1000041EB045170BD0EF0004E4EEA113114EB5C04C2BFD4EB3C
:401840000C0541EA045170BD41F480114FF0000E013C90E645EA060E8DE60CEA135594EA0C0F08BF95EA0C0F3FF43BAF94EA0C0F0AD150EA01347FF434AF95EA0C0F7FF473
:4018800025AF104619462CE795EA0C0F06D152EA03353FF4FDAE1046194622E750EA410618BF52EA43067FF4C5AE50EA41047FF40DAF52EA43057FF4EBAE12E74FF0FF3C97
:4018C00006E000BF4FF0010C02E000BF4FF0010C4DF804CD4FEA410C7FEA6C5C4FEA430C18BF7FEA6C5C1BD001B050EA410C0CBF52EA430C91EA030F02BF90EA020F00203B
:40190000704710F1000F91EA030F58BF994208BF90422CBFD8176FEAE37040F0010070474FEA410C7FEA6C5C02D150EA013C07D14FEA430C7FEA6C5CD6D152EA033CD3D003
:401940005DF8040B704700BF8446104662468C461946634600E000BF01B5FFF7B7FF002848BF10F1000F01BD4DF808EDFFF7F4FF0CBF012000205DF808FB00BF4DF808ED6D
:40198000FFF7EAFF34BF012000205DF808FB00BF4DF808EDFFF7E0FF94BF012000205DF808FB00BF4DF808EDFFF7CEFF94BF012000205DF808FB00BF4DF808EDFFF7C4FFA8
:4019C00034BF012000205DF808FB00BF4A0011D212F5001211D20DD56FF47873B3EB62520ED44FEAC12343F0004343EA505323FA02F070474FF00000704750EA013002D1B2
:401A00004FF0FF3070474FF000007047014B1868704700BF5081FF1F0E4B70B51E460E4C0025E41AA410A54204D056F8253098470135F8E701F0ECFD084B094C1E46E41A11
:401A4000A4100025A54204D056F8253098470135F8E770BD1C3600001C3600001C3600002436000010B5431E0A44914204D011F8014B03F8014FF8E710BD034602449342F3
:401A800002D003F8011BFAE770472DE9F04788B0149F002B1E461299B8BF03F1004327F02007B6BF1E4600232D23462F1446109DDDF84CA00B7003D0452F03D1013501E011
:401AC000032300E0022307AA049206AA03928DE828042246334600F0B7FB472F804602D1119BDB0728D5462F08EB050911D198F80030302B0AD10022002320463146FFF70B
:401B000033FF18B9C5F10105CAF80050DAF8003099440022002320463146FFF725FF08B9302202E0CDF81C9006E0079B994503D9591C07911A70F8E74046079B159AC8EB11
:401B40000303136008B0BDE8F087034673B50029B8BF494203F8022BB4BF2D222B22092942701ADD0DF1070216460A2591FBF5F405FB1411092C01F1300102F8011D214667
:401B8000F4DC3031541E02F8011CB4421A460AD214F8012B03F8012BF7E71A463024214402F8024B5970101A02B070BD2DE9F04F91B00C46DDF8688016461F46054601F028
:401BC000DBF803681846099300F0AAFA00230E93D8F800300A90073323F0070303F1080294F81890D4F800B0C8F80020D3E90023C4E91223D4F84CA0D4F848802AF000436C
:401C00000B934FF0FF32A74B40460B9901F014FCA0B94FF0FF32A34B40460B99FFF7B8FE60B90022002340465146FFF7A7FE10B12D2384F843309C4B9C4A0AE042465346FE
:401C40004046514601F0F8FB002800F09281984B984AB9F1470F8CBF90469846032323612BF0040323604FF0000A3DE0B9F1670F00F08A81B9F1470F00F086812360019396
:401C8000636800210DF13302059002920093424653460691CDF81090CDF80CE02846FFF7F4FE09F0DF03472B804600F08481B9F1650F0D9900F28D8101394A4604F150004A
:401CC0000D91FFF742FF0E9A82468318012A236100F37C812268D10700F178819DF8333013B12D2384F84330009733460FAA2146284600F09FF9013002D14FF0FF3096E10F
:401D000023685A0501D4236965E0B9F1650F40F2D580D4E9120100220023FFF725FE78B30123654A31462846B8470130E5D00E9B0D9A9A420BDB2368D80708D423689B07F3
:401D400040F111814FF0000804F1190906E10A9B099A31462846B8470130CED04FF0000804F11A090E9B013B9845E7DA01234A4631462846B8470130BFD008F10108F1E74C
:401D80000D9B002B29DC01234B4A31462846B8470130B2D00D9B23B90E9B13B92368D907CCD50A9B099A31462846B8470130A4D04FF0000904F11A0A0D9B5B42994509DABE
:401DC0000123524631462846B847013095D009F10109F1E70E9B4246A7E00E9AA36D9A42A8BF1A46002A914606DC4FF0000A29EAE97904F11A0B11E013463146424628464C
:401E0000B8470130F1D178E701235A4631462846B84701303FF471AF0AF1010AA36DC9EB03029245F0DB08EB03090D9A0E9B9A420FDB2368DA070CD40E9B0D9A9844C9EB73
:401E400008089B1A9845A8BF9846B8F1000F08DC0FE00A9B099A31462846B8470130EBD14BE743464A4631462846B84701303FF444AF4FF0000928EAE87804F11A0A09E095
:401E80000123524631462846B84701303FF435AF09F101090D9A0E9B9B1AC8EB03039945EEDB4BE7FFFFEF7FE4340000E8340000EC340000F0340000F43400000E9A012AC0
:401EC00001DCDB0738D50123424631462846B84701303FF412AF0A9B099A31462846B84701303FF40AAFD4E9120100220023FFF73BFD20B14FF0000804F11A090EE00E9B0E
:401F000008F10102013B19E001234A4631462846B84701303FF4F1AE08F101080E9B013B9845F1DB534604F1500231462846B84701307FF403AFE0E64246012331462846D4
:401F4000B8470130EED1D8E601234A4631462846B84701303FF4D1AE08F10108E3680F9A9B1A9845F0DBE0680F9B9842B8BF18465DE062680EA8531C0DF1340E4BF48063B7
:401F80007FF474AE062201E012B90122626075E6002106910DF133018DE80C00236005904246CDF81090CDF80CE0029153462846FFF76BFD80460D9BD81C02DB6268934281
:401FC0001DDDA9F102095FFA89F970E60133236184E6B9F1660F14D10029636807DD216113B92268D2071DD501330B4419E013B92268D00701D5023313E0012311E04FF075
:4020000067090D9B0E9A934205DB22682361D10708D5013305E0002BD4BFC3F102030123134423610D9B4FF0000AA36556E611B0BDE8F08F2DE9F04791461F460A698B68D0
:4020400006469342B8BF1346C9F8003091F843200C46DDF8208012B10133C9F800302368990642BFD9F800300233C9F80030256815F0060510D104F1190A07E00123524658
:4020800039463046C04701301AD00135E368D9F800209B1A9D42F1DB94F843302268003318BF012392060FD5E118302081F843005A1C94F845102244023382F8431003E05D
:4020C0004FF0FF30BDE8F08704F1430239463046C0470130F4D02268D9F80050E36802F00602042A08BF5D1B2269A3680CBF25EAE57500259342C4BF9B1AED184FF0000985
:402100001A344D4509D00123224639463046C0470130D5D009F10109F3E70020BDE8F087034613F8012B002AFBD1181A013870472DE9F74F03690C6980469C427FDC013C5D
:4021400001F114074FEA840E00F1140606EB0E0357F82450019356F824300135B3FBF5F507EB0E09C5B34FF0000A3846B446D34650F8043B9AB205FB02A21B0C4FEA124A25
:4021800005FB03A392B2C2EB0B0BBCF800204FEA134A5A441FFA83FBDCF800308145CBEB134303EB224392B242EA03424FEA234B4CF8042BDCD256F80E306BB9019B043BA2
:4021C0009E421A4602D3C8F8104005E01268043B002AF8D1013CF3E7404600F0E6FF00282BDB304601354FF0000E57F8042B036891B2C1EB0E0E120C99B27144C2EB13437B
:4022000003EB214389B24FEA234EB94541EA034340F8043BE9D256F8242006EB840362B9043B9E421A4602D3C8F8104005E01268043B002AF8D1013CF3E7284600E0002027
:4022400003B0BDE8F08F00002DE9F04F456A95B08246219CCDE9022345B9102000F090FDCAF82400456085600560C560DAF82430196859B15A68012393404A608B605046A4
:4022800000F0BBFDDAF8243000221A60039BA04A002BBDBF01232360039B0023BCBF23F000430393DDF80C80A8BF236028F000431B0D1B0593421DD142F20F73209A136022
:4022C000029B43B9934A944BC8F31300002814BF1846104600E09048229B002B00F04685C37813B100F1080300E0C31C229A136000F03CBDDDE902450022002320462946B8
:40230000FFF732FB074658B1209A01231360229B002B00F01E8581481860013800F026BD12AB019313AB009322462B46504600F0B7FFC8F30A56049056B1C5F3130343F09D
:402340007F51204641F44011A6F2FF3611971DE0139B129E1E4406F23243202B0ADD029A06F21240C3F1400322FA00F008FA03F3184304E0C3F12000029B03FA00F0FFF75C
:4023800015F80123A1F1F871013E11930022644BFEF7CEFE58A3D3E90023FFF77DF858A3D3E90023FEF7C6FE044630460D46FFF70DF855A3D3E90023FFF76EF802460B46CA
:4023C00020462946FEF7B6FE04460D4601F04AF800228346002320462946FFF7CFFA58B15846FEF7F3FF02460B4620462946FFF7BBFA08B90BF1FF3BBBF1160F0DD8DDE9D3
:402400000223484901EBCB01D1E90001FFF7D4FA30B10BF1FF3B002300E00123109300E01090129B9E1B731E079343BFC3F10008002307934FF00008BBF1000F06DB079BBD
:40244000CDF82CB05B440793002705E00023CBEB0808CBF100070B931E9B092B28D8052BC4BF043B1E931E9BC8BF0025A3F10203D8BF0125032B20D8DFE803F0060E0204E7
:40248000012302E0012308E000230A931F9B002B1DDD9946059321E000230A931F9B0BEB030909F10103012B0593B8BF012315E0012500231E930A9501E001230A934FF0AB
:4024C000FF390022CDF8149012231F9206E04FF001094B46CDF81490CDF87C90DAF8244000226260042101F114029A421CD86268490001326260F6E761436F63A787D23F88
:40250000B3C8608B288AC63FFB799F501344D33F0000F07FF6340000FF340000F53400000000F83F103500006168504600F030FCDAF8243020601B680693059B0E2B00F239
:402540005B81002D00F05881DDE90234BBF1000FCDE90E3430DD9F4A0BF00F034FEA2B1502EBC303E80618CBCDE908340CD5DDE90E01994B05F00F05D3E90823FFF7B6F8BA
:402580000324CDE9020100E00224934E6DB1E90708D5DDE90801D6E90023FEF77DFFCDE9080101346D100836F0E7DDE90823DDE90201FFF79BF820E0CBF1000505B3DDE93F
:4025C0000E01844B05F00F0203EBC203D3E90023FEF762FFCDE902017F4E2D110023022455B1EA0705D5D6E90023FEF755FF013401236D100836F3E71BB1CDE9020100E0B3
:402600000224109BE3B1DDE902560022734B28463146FFF7B3F998B1059B8BB1B9F1000F40F3E6800BF1FF330893314600226C4B2846FEF731FF0134CDE902014E4602E029
:40264000059ECDF820B02046FEF7C0FEDDE90223FEF722FF634B0022FEF76CFDA1F1507304460C931D46D6B9DDE9020100225E4BFEF75EFD22460C9BCDE90201FFF79CF973
:40268000002840F03F820C99224601F10043DDE90201FFF773F9002840F02B82A8E00A9A4C4B711E002A49D003EBC103D3E9002300204E49FFF71AF822462B46FEF738FDA7
:4026C000CDE90C01069CDDE9020100F0CBFE0546FEF77CFE02460B46DDE90201FEF728FDDDE90C23303504F8015BCDE90201FFF745F9002840F01D83DDE90223002037499B
:40270000FEF716FDDDE90C23FFF738F9002840F0D180069BE31AB3426ADADDE90C0100222F4BFEF7B9FE0022CDE90C01DDE902012B4BFEF7B1FECDE90201C4E703EBC101FE
:402740002246D1E900012B46FEF7A6FE069BCDE90C011D469C19DDE9020100F083FE0646FEF734FE02460B46DDE90201FEF7E0FC303605F8016BAC42CDE902014FF0000219
:4027800022D11A4BDDE90C01FEF7D4FC02460B46DDE90201FFF710F9002840F08B80DDE90C2300201149FEF7C3FC02460B46DDE90201FFF7E3F8D8B114F8013C621E302B62
:4027C00040F0B7821446F7E7054BFEF765FECDE90201C0E710350000E83500000000F03F0000244000001C40000014400000E03FDDE90E34CDE90234139B002B7CDBBBF19C
:402800000E0F79DCAB4B03EBCB03D3E900671F9B002B14DA059B002B11DC40F06C810022A54B30463946FEF737FEDDE90223FFF7B9F8059D2E46002840F05F8165E1069CB0
:40284000DDE9028932463B4640464946FEF74EFF00F008FE0546FEF7B9FD32463B46FEF71BFE0B46024649464046FEF761FC05F1300E069B04F801EBC3EB040E059B7345EF
:402880002DD102460B46FEF755FC8046894602460B4630463946FFF771F878B942464B4630463946FFF760F8002800F04482EB0704D440E2DDF820B000E01C4614F8012C42
:4028C000631E392A07D1069A9A42F6D1069930220BF1010B0A701A7801321A702BE20022764BFEF7D9FD0022002380468946FFF73BF80028A6D01EE20A9A002A2BD01E9A3A
:40290000012A0ADC119A12B103F2334302E0129BC3F136033D46444613E0059B5D1EAF42BFBF0B9BEA1B9B180B93059BB6BF2F467D1B0025002BA7BF4446059BC3EB0804EF
:402940000023079A01211A4450469844079200F0F3FA064602E03D4644460A9E5CB1079B002B08DDA342A8BF2346079AC3EB0808E41AD31A0793002F1DDD0A9BABB18DB188
:4029800031462A46504600F071FB049A01460646504600F0DAFA04990890504600F02DFA089B04937A1B06D000E03A460499504600F05CFB04900121504600F0BDFA0B9BB9
:4029C00005465BB31A460146504600F04FFB1E9B0546012B18DC029B83B9039BC3F3130373B9039B23F000473F0D3F054FB1079B08F1010801330793012702E0002700E069
:402A0000029F0B9B73B100E000272B6905EB8303186900F044FAC0F1200004E01E9B012BD9DD0B9F0120079B184410F01F0008D0C0F12003042B02DDC0F11C0002E006D0F4
:402A400018461C30079B8044034404440793B8F1000F05DD42460499504600F055FB0490079B002B05DD29461A46504600F04CFB0546109B23B32946049800F096FB002829
:402A80001EDA00230A220499504600F0CDF90A9B0BF1FF3B0490002B00F05F81314600230A22504600F0C0F9B9F1000F06463FDC3BE000BF10350000000014400000244080
:402AC000059B002B2BDC1E9B022B28DDDDF81490B9F1000F11D129464B460522504600F0A3F901460546049800F05FFB00280CDC03E0354600E000252E461F9B069C6FEAA8
:402B0000030B09E03546DDF820B0069B069A5C1C312313700BF1010B05960026F7E00A9BDDF8149023B9069CB2E01E9B022BCFDC002C05DD31462246504600F0E5FA0646F1
:402B40009FB17168504600F023F90446326906F10C01023292000C30FEF784FF01222146504600F0D1FA059000E00596029B069F03F00103079329460498FFF7D9FA31461E
:402B8000044600F13008049800F00FFB059A02902946504600F025FBC36802463BB901460A90049800F001FB0A9A034600E00123114650460A9300F020F90A9B53B91E9A09
:402BC00042B9079A32B9B8F1390F2AD0029B002B1CDC1DE0029A002A04DB1BD11E9ACAB9079ABAB9002B13DD01220499504600F08BFA2946049000F0D8FA002803DC07D13C
:402C000018F0010F04D0B8F1390F0AD004F131087C1C0CE0002B07F101040BDDB8F1390F03D139233B70013756E008F1010887F800806CE0069B2746E31A4B4504F8018C70
:402C40003BD000230A220499504600F0EDF8059B04909E424FF00A024FF000033146504604D100F0E1F80646059084E700F0DCF8002306460A220599504600F0D5F8059075
:402C800079E700230A220499504600F0CDF8049029460498FFF74CFA069B00F1300804F8018BE31A4B45ECDB069B0596B9F1010FACBF4B4401331F460026012204995046F7
:402CC00000F022FA2946049000F06FFA002803DC15D118F0010F12D03C4614F8013C621E392B09D1069B934204D10BF1010B3123069A02E01446F0E70133137007E03C4682
:402D000014F8013C621E302B01D11446F8E72946504600F072F8059B6BB12EB19E4203D03146504600F069F80599504600F065F801E0DDF820B00499504600F05EF80023B6
:402D4000209A23700BF101031360229B1BB11C6001E008480AE0069808E0B9F1000F3FF7E2AE1E9B022B7FF7DEAEB1E615B0BDE8F08F00BFF4340000004870475481FF1F2D
:402D8000024B0146186800F0E7BA00BF5081FF1F70B5456A04460E463DB91020FFF7F0FF6062456085600560C560656AEB6843B1636ADB6853F8260078B1026843F82620C2
:402DC00017E021220421204600F0B8FA636AE860DB68002BECD1002070BD012101FA06F56A1D9200204600F0A9FA0028F3D04660856000230361C36070BD70B5446A064649
:402E00000D463CB91020FFF7BBFF7062446084600460C4603DB1736A6A68DB6853F82210296043F8225070BD2DE9F04106460C460D691F4601F1140E0023DEF800000133C7
:402E400081B202FB0171000C0F0C02FB007089B201EB00419D424FEA10474EF8041BECDCD7B1A3689D4212DB616830460131FFF78FFF8046226904F10C01023292000C306F
:402E8000FEF7F0FD21463046FFF7B7FF444604EB850301355F6125612046BDE8F081030C1B0413B90004102300E0002310F07F4F04BF0002083310F0704F04BF00010433F2
:402EC00010F0404F04BF80000233002803DB420003D5581C70471846704720207047036813F007020BD0D90722D49A074BBF5B089B08036003604CBF01200220704799B285
:402F000009B91B0C102213F0FF0F04BF1B0A0832190704BF1B090432990704BF9B080232D90702D45B0805D00132036010467047002070472020704710B50C460121FFF73E
:402F400027FF01224461026110BD2DE9F74F14460A69236988469A42BEBF0B46A0461C46D8F81070D4F81090D8F80830D8F8041007EB09069E42C8BF0131FFF709FF00F18D
:402F800014052B4605EB860C0022634502D243F8042BFAE704F1140208F1140102EB890301EB87070093009B0192934257D9B2F800B0BBF1000F23D08946AE464FF0000838
:402FC00059F8044BBEF800A0A3B20BFB03A34FEA144ADEF8004043444FEA14480BFB0A84F24604EB13449BB243EA04434F454FEA14484AF8043B01D9D646E1E7CEF804808C
:40300000019B0432B3F802A0BAF1000F21D02C4689462B684FF00008B9F800E0B4F802B09BB20AFB0EBEA346F04443EA08434BF8043B59F8043BB4F804E01B0C0AFB03E355
:403040004F4503EB18434FEA134801D95C46E3E763600435A7E75CF8043D13B9013E002EF9DC066103B0BDE8F08F00002DE9F843154612F0030206460F4607D0214C013A5B
:40308000002354F82220FFF7CFFE0746AD1036D0746A3CB91020FFF773FE7062446084600460C460D6F82480D8F808404CB940F271213046FFF740FF04460023C8F808000D
:4030C00003604FF00008EB070AD5394622463046FFF73BFF814639463046FFF78EFE4F466D100CD0206808B10446ECE7224621463046FFF72AFF2060C0F80080F4E73846C9
:40310000BDE8F883D83500002DE9F0470C460746914626694FEA621A56444968A368751CAB4202DA01315B00FAE73846FFF730FE002380461A4600F11401534503DA41F89E
:4031400023200133F9E72AEAEA73206901EB830319F01F0904F1140101EB800E14D0C9F1200C002208689A4600FA09F0024343F8042B51F8042B8E4522FA0CF2F2D8CAF808
:40318000042042B1B51C06E0043B51F8042B8E4543F8042FF9D8013D3846C8F810502146FFF72BFE4046BDE8F08703690A6910B59B1A11D192001430143183180A4453F8EA
:4031C000044D52F8041D8C4202D007D3012010BD9842F4D3002010BD184610BD4FF0FF3010BD2DE9F8430C460746114620461546FFF7DBFF061E08D131463846FFF7C8FD32
:40320000012303614661BDE8F883BCBF23462C4638466168BABF1D4601260026FFF7B8FD2B69C660266905F1140904F1140101EB860709EB830800F114054FF0000C51F8D2
:40324000042B59F8044B93B29C44A3B2240CC3EB0C03C4EB124202EB23429BB24FEA224CC84543EA02428E4645F8042BE7D8BE450ED25EF8041B8AB26244131403EB1143AF
:4032800092B242EA03424FEA234C45F8042BEEE755F8043D0BB9013EFAE70661BDE8F8832DE9F3411C4601219046089E099DFFF76FFDC4F31302C4F30A5407460CB142F404
:4032C00080120192B8F1000F19D002A840F8088DFFF705FE009B48B1019AC0F1200102FA01F10B43C2407B61019200E07B61019B002B14BF02210121BB61396107E001A809
:40330000FFF7EDFD019B01217B613961203034B1A4F2334404443460C0F1350009E0A0F2324007EB810330601869FFF7B8FDC0EB41102860384602B0BDE8F08138B502FBA2
:4033400001F4214600F008F8054618B122460021FEF793FB284638BD70B5CD1C25F0030508350C2D38BF0C25002D064601DBA94202D90C23336046E000F05CF8234B1C687C
:403380001A462146A1B10B685B1B0ED40B2B03D90B60CC18CD501EE08C420BBF63684B681360636018BF0C4615E00C464968E9E7174C23681BB9304600F02CF82060294635
:4033C000304600F027F8431C18D0C41C24F00304A0420DD12560304600F02DF804F10B00231D20F00700C31A0ED05A42E25070BD211A304600F00EF80130EBD10C233360D3
:40340000304600F018F8002070BD00BFF081FF1FEC81FF1F38B5064C0023054608462360FDF72AFA431C02D1236803B12B6038BD1482FF1F704770474FEA410C7FEA6C5C90
:4034400002D150EA013C0AD14FEA430C7FEA6C5C02D152EA033C02D14FF0000070474FF0010070474FEA410212F5001215D211D56FF47873B3EB625212D94FEAC12343F023
:40348000004343EA505311F0004F23FA02F018BF404270474FF00000704750EA013005D111F0004008BF6FF0004070474FF00000704700BF00000000004F004030004051F0
:4034C0000040300000000140001000140140000800400140000A004C014000020050014020004300494E4600696E66004E414E006E616E003000496E66696E697479004EA4
:40350000614E00504F534958002E000000000000000000000000F03F000000000000244000000000000059400000000000408F40000000000088C34000000000006AF840B3
:403540000000000080842E4100000000D01263410000000084D797410000000065CDCD41000000205FA00242000000E876483742000000A2941A6D42000040E59C30A24289
:403580000000901EC4BCD64200003426F56B0C430080E03779C3414300A0D8855734764300C84E676DC1AB43003D9160E458E143408CB5781DAF154450EFE2D6E41A4B445B
:4035C00092D54D06CFF08044F64AE1C7022DB544B49DD9794378EA4405000000190000007D000000000000000080E03779C34143176E05B5B5B89346F5F93FE9034F384D8E
:40360000321D30F94877825A3CBF737FDD4F1575F8B500BFF8BC08BC9E4670474D000000F5080000F8B500BFF8BC08BC9E4670472900000048360000C880FF1FC8000000B7
:40364000880000000000000000000000000000000000000000003E400000000000003E400000000000005940CCF7FFFF1882FF1F00000000000000000000000000000000B4
:4036800000000000000000000000000000000000E23400000000000000000000000000000000000000000000000000000000000000000000000000000000000000000000F4
:4036C00000000000000000000000000000000000F080FF1F093500000A3500000A3500000A3500000A3500000A3500000A3500000A3500000A3500000A350000FFFFFFFFCB
:40370000FFFFFFFFFFFFFFFFFFFF00000000000000000000000000000000000000000000000000000000000000000000000000000000000000000000000000000000000093
:403740000000000000000000000000000000000000000000000000000000000000000000000000000000000000000000000000000000000000000000000000000000000049
:403780000000000000000000000000000000000000000000000000000000000000000000000000000000000000000000000000000000000000000000000000000000000009
:4037C00000000000000000000000000000000000000000000000000000000000000000000000000000000000000000000000000000000000000000000000000000000000C9
:403800000000000000000000000000000000000000000000000000000000000000000000000000000000000000000000000000000000000000000000000000000000000088
:020000040003F7
:0200000480007A
:4000000001450040084F0040085200400464004003650040430001402D01014061020140480301406B040140520501405D0601405107014012090140520A01403C0B014090
:40004000040C0140030D0140461401404F1501403F1601404B1701400C190140031B014007400140114101401A42014007430140014601400547014009480140104901401C
:40008000014C0140044D014006500140025101407E0201100A4B0D10164B1930224B25302E4B00100110040F181819106008611C7C468172830F866F8B0F846F8638870F7E
:4000C00000010702110218011E0121022702290132013301370239803E043F04580459045C205F018104820C8408852089208AC38C048D198E088F0690FF9309947C950255
:400100009682983C99069AC19C209D1FA0CFA109A230A410A517A708A830A916AB09AC04AD20B108B23FB320B4B0B510B670B707BA2ABB80BF10D602D711D804D904DB04BF
:40014000DC22DD20DF0102800412071109800A040C800E98168017A81A201D411E981F24220423012410254126182A102B602F663101364137683B083DA83E823F805E205C
:400180006D286F067480760277287D03801082018310C0F8C2F3C4F0CAF7CCF1CEF2D620053C093C0A030C010E021115132A150C160217301D101E0C1F0524032608280321
:4001C0002A042D202E012F0A333C360F37033A804056410142044402460C47E0482449FF4AFF4BFF4C624DA04EF04F41500C580459045A045C225D025F01664067026910AF
:400200006A306B106D106E106F12810983108401870389308B0C8E028F20951C97229D10A514AB20AD2CAF11B202B51FB601B720BE40BF40C026C105C50BC6ECC80DC9FF60
:40024000CAFFCBFFCEF0CF44D00CD401D604D804D904DA04DB04DC20DD22DF01E6C0EA40EB0200040202041007010E020F101608178418201A021B081E0220042240241222
:40028000260429A42F023004338036043781388439223D283E08411045204640474049A44E084F8050405210568258015A885B20608061406240848088018A11910192288F
:4002C000930194029604978099409B449E109F81A114A208A340A580A680C0C5C2A0C4E0CA1ECCDACE6FD0B4D23CD60FD801E220E6800208030805130613070C09200B0570
:400300000C310D030E0E0F04146C16031F40214024312646290A2B142D132E4C2F043130320F33403430350F364A382039023A883B203E103F044036410249FF4AFF4BFFB6
:400340004DA04F015018580459045A045C225F016040628064406540668068406A806C406D206E808105821089058A068E10950496049E01A002A204A608A902AE02B010C2
:40038000B208B304B407B502B607B701B988BE51BF14C032C106C52CC630C74EC83BC9FFCAFFCBFFCDAFCE07CF01D018D804D904DA04DF01E040E280E440E540E680E840D6
:4003C000EA80EC40ED20EE8000080180038004100540068008040A100E020F10120213081504178119901A101D241F45200421192202230825D026042720280429802A0141
:400400002C0830803608388439023B203E203F024204430447244A044E044F06550156285A0C840185088B808C08909091059220931195229604978099409A829B809C04AD
:400440009DA09F01A201A308A5A0A680A780AA02AD04AF92B450B720C0DDC2A4C4B5CA2DCC48CEAFD066D224E410E6080001030314081D021E0A26053004310232023401CF
:40048000360837013E503F014046410349FF4AFF4BFF4DA04F015018540F580459045A045B045F056040628064406540668068406A806C406D206E8084CF85138630872CB3
:4004C0008830890C8AC98B438C7390949260957F9B709C9E9D1A9E609F25A60FA780A8FDA945AA02AB0AAD77B2FFB30FB5F0BE04C046C102C52EC6C4C703C81FC9FFCAFF51
:40050000CBFFCDAFCE07CF01D018D804D904DA04DF01E040E280E440E540E680E840EA80EC40ED20EE8000800180021003080501080209800A010E200F0210041328162081
:4005400019081D011E2A200C23282680278029882B083014318036803A103B083D02408444D04708488049244F20512052445D105E0A5F80660867046F017E088720891040
:400580008B0191019221930F960498439A3A9F05A141A309A480A688A910AA01AC04AD20AE01AF10B0C0B210B402B514C017C2A9C426CA0ECC1ECE86D0C5D224D6F0D86030
:4005C000DE20E002EA0CEE0285089008950197409C01A588A602A804AF18B040B1C0B224B401B520E850EA80EC80EE20080E09CC0AF00B120E01107F11CC132114FE15BB4E
:40060000160117441CA31D771E5C209621802268231F28C529082A3A2BF131F032FF330F3E04580459045F01800181018508860489088C088F0191049302970199089C08F5
:400640009D04A201A308A710A908AA08AE03B002B118B208B304B404B502B601B701B908BE44BF40C005C740C9FFCA07CBFFCC40CD20CEF0CF05D008D280D40FD804D904B4
:40068000DA04DB04DD02DF01E040E1A8E240E320016005010622080109080A820D8010C0131015401640176019081C041D411E202080220123102408264827602840292074
:4006C0002C802D283108324134203580360A3B103D013E063F50402041084C0157095C015EA05F04764088018B058C018D08A080B480C0B3C28DC4DACAE5CCFBCEF4D210D5
:40070000D6F0E280E608EC4038803E4058045F011F408B40E6800013022C040C054006430C7F0F6015071680181A190C1A251B021F0F20452108220A230125102670287741
:40074000290C2B012D0B2F04300F3110332034F0350F37403F41540F580459045B045F058094826085A3875C88CF8A308CFD8E02910E93F0957F99C59A0F9B3A9C309EC92C
:40078000A196A368A473A89EAA60AB01ADFEAF01B2FFB5FFBE04BF10D280D804D904DB04DF0100080102030204800503060809080B040C900E0610901208152017081880A9
:4007C0001A041B021D0820202114226123042610282029012B062C802F0A3080322835013628370839083A403C083E083F08580159085A805B1061246A406B0476807A0244
:4008000084308A018E408F049480960497049801990D9A409B109E80A004A120A20BA308A610A804AB04AF40C0DDC2C6C46ECABFCCEECE4AD60FD806DE08E008E220E640C5
:40084000000202F00304060108C20A200CB20E40110216041A081C801E12230424C2261028702B032F0230013206330434F03502360837013F1454185604580459045B047F
:400880005D205F0180048506880289308A018C028D05950399069A049D309E04A002A118A401A928B004B138B201B307B402B820B90ABE15D40FD804D904DB04DF01008040
:4008C000028504880511070109400A040E220F08108012201508172019281A401B101C081D111E021F082080220E23202508270628042A012E822F0831903208370238801D
:4009000039083A103B043F01450846205A685B015D01662067828080831088409101922093039604980599049A569D209F04A080A1E0A2A0A440A608A710AA20B004B60452
:40094000C0FBC2E3C46CCAB5CC8ECE8ED68FD8B0EA02EE03880195019C01A804B180B340B602E420E820EA02EC10EE0285019501E410314236483B408308CCF0CE10E0201F
:4009800000080301072833403780660887408A0997409D409F08A502A648C0F0CC30D880E640138017405108542058085A015E016008640885408D0892019D409FC0A5027B
:4009C000A648AB20AC04AF09C4C0D460D6C0D8C0E610E8D0EC401B011D08A50AA648A820C630EA80840808080B040F409C08C20E00400740A301A608AD02AE40C060EA40E2
:400A0000EE4056206302660887018A088E20A301A840AB40AE08D440D640D880E410EA10ECA0AF4479808D40DC01E408000508050A050C0510051A0500EA013F1000EF102D
:400A400010001000000000000800001C1C001C00000000004000060000000000C0000000E00B0B000000000000020200000000001000007B7B0038000000000000000000BC
:400A80000000000000000000000000000000000000000000000000000000000000000000000000000000000000000000000000000000000000000000000000000000000036
:400AC00000000000000000000000000000000000000000000000000000000000000000000000000000000000000000000000000000000000000000000000000000000000F6
:400B000000000000000000000000000000000000000000000000000000000000000000000000000000000000000000000000000000000000000000000000000000000000B5
:400B40000000000000000000000000000000000000000000000000000000000000000000000000000000000000000000000000000000000000000000000000000000000075
:0200000490006A
:0400000000004005B7
:0200000490105A
:04000000BC90ACAF55
:0200000490303A
:020000007B9EE5
:0200000490402A
:4000000000000000000000000000000000000000000000000000000000000000000000000000000000000000000000000000000000000000000000000000000000000000C0
:400040000000000000000000000000000000000000000000000000000000000000000000000000000000000000000000000000000000000000000000000000000000000080
:400080000000000000000000000000000000000000000000000000000000000000000000000000000000000000000000000000000000000000000000000000000000000040
:4000C0000000000000000000000000000000000000000000000000000000000000000000000000000000000000000000000000000000000000000000000000000000000000
:0200000490501A
:0C00000000012E16106900012E2E8C0746
:00000001FF